:020000040000FA
:0400000000005CD1CF
:04000800000008D01C
:0800180000000DD0000E67622C
:100020005BEF01F0F2B4E3EF00F0CD90D58E9EB01F
:10003000E3EF00F011009EBA1FEF00F01000686EB1
:10004000000E57622AEF00F0FF0EAE626AEF00F07A
:10005000DFEF00F0010E57626DEF00F0530EAE625D
:1000600034EF00F0DFEF00F0490EAE623EEF00F03B
:10007000000EC9EC02F0F28A5EEF00F0500EAE62A4
:1000800047EF00F06769E2EC02F05EEF00F0520E1D
:10009000AE624EEF00F0676A5EEF00F0430EAE62B4
:1000A00065EF00F0676A000EC9EC02F05EEF00F049
:1000B000010EAE626AEF00F0DFEF00F04F0EAD6EA2
:1000C0009EA860EF00F06AEF00F04E0EAD6E9EA8A5
:1000D00067EF00F0576AE0EF00F0020E576275EF2D
:1000E00000F0AE50586EDFEF00F0030E57627DEF68
:1000F00000F0AE50596EDFEF00F0040E576285EF4E
:1001000000F0AE505A6EDFEF00F0050E57628DEF33
:1001100000F0AE505B6EDFEF00F0060E576295EF19
:1001200000F0AE505C6EDFEF00F0070E57629DEFFF
:1001300000F0AE505D6EDFEF00F0080E5762A5EFE5
:1001400000F0AE505E6EDFEF00F0090E5762ADEFCB
:1001500000F0AE505F6EDFEF00F00A0E5762B5EFB1
:1001600000F0AE50606EDFEF00F00B0E5762BDEF97
:1001700000F0AE50616EDFEF00F00C0E5762C5EF7D
:1001800000F0AE50626EDFEF00F00D0E5762CDEF63
:1001900000F0AE50636EDFEF00F00E0E5762D5EF49
:1001A00000F0AE50646EDFEF00F00F0E5762DDEF2F
:1001B00000F0AE50656EDFEF00F0AE50666E572A6D
:1001C000680E9E9A100048B246EF01F0A3EC03F0CF
:1001D000480ECF6EA00ECE6ECD80ECEC02F0FF0E7E
:1001E000506E00D000D000D000D000D000D0502EF3
:1001F000F8D700D000D000D000D000D000D000D080
:1002000000D000D000D000D000D000D000D000D06E
:1002100000D000D000D000D000D000D000D000D05E
:1002200000D000D000D000D000D000D000D000D04E
:1002300000D000D000D000D000D000D000D000D03E
:1002400000D000D000D000D000D000D000D000D02E
:1002500000D000D000D000EE18F011EE18F021EE22
:1002600000F0406A416AEF503D6E41503D5E19E03A
:10027000EF50416E010E3C6E486800000000000027
:10028000000000000000000000000000FF0ED76E1C
:10029000E10ED66E00003C2A3D503C640CD0486A0A
:1002A00000005CEC03F0DE504026E92A0000170E47
:1002B0004064D9D7D59E9E90F2941100000E926EA4
:1002C000000E936E800E946E000E956E000E966E6C
:1002D000000E806E000E816E000E826E000E836E28
:1002E000000E846E800ED06E240EF26E8E0EF16EB5
:1002F000900ED56E000ECA6EA00ECD6E9D809F80B2
:10030000010E476E486A3C6A800E3D6E576A400E89
:10031000AF6EAC98AB8EAB9CAB889D8A9F9A210E3A
:10032000AC6E9D8A9F98000E006E000E016E000E4E
:10033000026E000E036E000E046E000E056E000EBF
:10034000066E000E076E000E086E000E096E000E9F
:100350000A6E000E0B6E000E0C6E000E0D6E000E7F
:100360000E6E000E0F6E000E106E000E116E000E5F
:10037000126E000E136E000E146E000E156E000E3F
:10038000166E000E176E0101170E006F000E016F42
:10039000000E026F000E036F000E046F000E056F5B
:1003A000000E066F000E076F000E086F000E096F3B
:1003B000000E0A6F000E0B6F000E0C6F000E0D6F1B
:1003C000000E0E6F000E0F6F000E106F000E116FFB
:1003D000000E126F000E136F000E146F000E156FDB
:1003E000000E166F000E176FFF0E186FFF0E196FBD
:1003F000FF0E1A6F000E1B6F000E1C6F000E1D6F9C
:10040000000E1E6F000E1F6F000E206F000E216F7A
:10041000000E226F000E236F000E246F000E256F5A
:10042000000E266F000E276F000E286F000E296F3A
:10043000000E2A6F000E2B6F000E2C6F000E2D6F1A
:10044000000E2E6F000E2F6F000E306F000E316FFA
:10045000000E326F000E336F000E346F000E356FDA
:10046000000E366F000E376F000E386F000E396FBA
:10047000000E3A6F000E3B6F000E3C6F000E3D6F9A
:10048000000E3E6F000E3F6F000E406F000E416F7A
:10049000000E426F000E436F000E446F000E456F5A
:1004A000000E466F000E476F000E486F000E496F3A
:1004B000000E4A6F000E4B6F000E4C6F000E4D6F1A
:1004C000000E4E6F000E4F6F000E506F000E516FFA
:1004D000000E526F000E536F000E546F000E556FDA
:1004E000000E566F000E576F000E586F000E596FBA
:1004F000000E5A6F000E5B6F000E5C6F000E5D6F9A
:10050000000E5E6F000E5F6F0001576A676AF28E21
:10051000F28C110E576289EF02F0576A000E5824D0
:1005200059245A245B245C245D245E245F246024C7
:10053000612462246324642465246662C2EF02F0AD
:1005400058C000F059C001F05AC002F05BC003F07F
:100550005CC004F05DC005F05EC008F05FC009F04B
:1005600060C00AF061C00BF062C00CF063C00DF017
:1005700064C010F065C011F04F0EAD6E9EA8BEEFC6
:1005800002F0C7D74E0EAD6E9EA8C4EF02F089EF01
:1005900002F0006E016E026E036E046E056E066E52
:1005A000076E086E096E0A6E0B6E0C6E0D6E0E6E87
:1005B0000F6E106E116E126E136E146E156E166E37
:1005C000176E1200E00E8916F80E8B16C00E8A16F2
:1005D000FC0E8D168C6A1200426A446A436A466AAF
:1005E000456AE86A0066010E4212E86A0166020E78
:1005F0004212E86A0266040E4212E86A0366080EB6
:100600004212E86A0466100E4212E86A0566010E9C
:100610004412E86A0666020E4412E86A0766040E8F
:100620004412E86A0866010E4312E86A0966020E7F
:100630004312E86A0A66040E4312E86A0B66080E63
:100640004312E86A0C66100E4312E86A0D66200E2B
:100650004312E86A0E66010E4612E86A0F66020E41
:100660004612E86A1066010E4512E86A1166020E2B
:100670004512E86A1266040E4512E86A1366080E0F
:100680004512E86A1466100E4512E86A1566200ED7
:100690004512E86A1666400E4512E86A1766800E33
:1006A00045124250896E44508B6E43508A6E4650BC
:1006B0008D6E45508C6E12003D5023E0E7503F0B8D
:1006C0008918426EE750E846E846E846070B8B1863
:1006D000446EE4503F0B8A18436EE650E846E84605
:1006E000030B8D18466EE6508C18456E4250896E8D
:1006F00044508B6E43508A6E46508D6E45508C6EC2
:100700001200E12AE12AE12A0000000000000000B6
:1007100000000000000000000000000000000000D9
:1007200000000000000000000000000000000000C9
:1007300000000000000000000000000000000000B9
:1007400000000000120000EE18F011EE18F021EE8B
:1007500000F0E9CF51F0E2CF53F0E1CF52F0D9CF22
:1007600054F04A6A180E506E00EE00F010EE4DF094
:1007700049684D6A4E6A4F6A010E556E4C6E566A54
:10078000562A190E566021D0180E505C03E0EF5027
:100790004A6013D0EF50496204D04C50E712552AFA
:1007A0000CD0496001D009D0EF50496E4D6A4E6AB5
:1007B0004F6A010E556E4C50E712D8904C36D8A0B7
:1007C00002D04C36E12AE92ADBD749504A6E51C0A3
:1007D000E9FF53C0E2FF52C0E1FF54C0D9FF49C056
:1007E000EEFF4DC0E6FF4EC0E6FF4FC0E6FF55C02E
:1007F000DEFFE9CF51F0E2CF53F0E1CF52F0D9CF95
:0808000054F0502EB1D7120094
:020000040030CA
:04000000FFFEFDFE04
:080006007AFFFFC0FFE0FF409C
:00000001FF
