:020000040000FA
:0400000000009ED18D
:04000800000008D01C
:0800180000000DD0000E67622C
:100020009DEF01F0F2B425EF01F0CD90D58E9EB09A
:1000300025EF01F011009EBA1FEF00F01000686E6E
:10004000000E57622AEF00F0FF0EAE62ACEF00F038
:1000500021EF01F0010E5762AFEF00F0530EAE62D8
:1000600034EF00F021EF01F0490EAE623EEF00F0F8
:10007000000E0BEC03F0F28AA0EF00F0500EAE621F
:1000800047EF00F0676924EC03F0A0EF00F0520E98
:10009000AE624EEF00F0676AA0EF00F0300EAE6285
:1000A00059EF00F0300EAD6E9EA854EF00F0A0EFB7
:1000B00000F0310EAE6264EF00F0310EAD6E9EA81E
:1000C0005FEF00F0A0EF00F0320EAE626FEF00F0D5
:1000D000320EAD6E9EA86AEF00F0A0EF00F0330E76
:1000E000AE627AEF00F0330EAD6E9EA875EF00F0B1
:1000F000A0EF00F0340EAE6285EF00F0340EAD6E6E
:100100009EA880EF00F0A0EF00F0350EAE6290EFF9
:1001100000F0350EAD6E9EA88BEF00F0A0EF00F062
:10012000430EAE62A7EF00F0676A000E0BEC03F01F
:10013000A0EF00F0010EAE62ACEF00F021EF01F095
:100140004F0EAD6E9EA8A2EF00F0ACEF00F04E0E89
:10015000AD6E9EA8A9EF00F0576A22EF01F0020EE3
:100160005762B7EF00F0AE50586E21EF01F0030E6A
:100170005762BFEF00F0AE50596E21EF01F0040E50
:100180005762C7EF00F0AE505A6E21EF01F0050E36
:100190005762CFEF00F0AE505B6E21EF01F0060E1C
:1001A0005762D7EF00F0AE505C6E21EF01F0070E02
:1001B0005762DFEF00F0AE505D6E21EF01F0080EE8
:1001C0005762E7EF00F0AE505E6E21EF01F0090ECE
:1001D0005762EFEF00F0AE505F6E21EF01F00A0EB4
:1001E0005762F7EF00F0AE50606E21EF01F00B0E9A
:1001F0005762FFEF00F0AE50616E21EF01F00C0E80
:10020000576207EF01F0AE50626E21EF01F00D0E64
:1002100057620FEF01F0AE50636E21EF01F00E0E4A
:10022000576217EF01F0AE50646E21EF01F00F0E30
:1002300057621FEF01F0AE50656E21EF01F0AE5036
:10024000666E572A680E9E9A100048B288EF01F039
:10025000AEEC03F0480ECF6EA00ECE6ECD8028EC33
:1002600003F0FF0E506E00D000D000D000D000D0C0
:1002700000D0502EF8D700D000D000D000D000D051
:1002800000D000D000D000D000D000D000D000D0EE
:1002900000D000D000D000D000D000D000D000D0DE
:1002A00000D000D000D000D000D000D000D000D0CE
:1002B00000D000D000D000D000D000D000D000D0BE
:1002C00000D000D000D000D000D000D000D000D0AE
:1002D00000D000D000D000D000D000EE18F011EE19
:1002E00018F021EE00F0406A416AEF503D6E415037
:1002F0003D5E19E0EF50416E010E3C6E4868000013
:1003000000000000000000000000000000000000ED
:10031000FF0ED76EE10ED66E00003C2A3D503C64C5
:100320000CD0486A000067EC03F0DE504026E92A52
:100330000000170E4064D9D7D59E9E90F29411000C
:10034000000E926E000E936E800E946E000E956EEF
:10035000000E966E000E806E000E816E000E826E94
:10036000000E836E000E846E800ED06E240EF26E30
:100370008E0EF16E900ED56E000ECA6EA00ECD6E72
:100380009D809F80010E476E486A3C6A800E3D6EDC
:10039000576A400EAF6EAC98AB8EAB9CAB889D8A13
:1003A0009F9A210EAC6E9D8A9F98000E006E000EE3
:1003B000016E000E026E000E036E000E046E000E43
:1003C000056E000E066E000E076E000E086E000E23
:1003D000096E000E0A6E000E0B6E000E0C6E000E03
:1003E0000D6E000E0E6E000E0F6E000E106E000EE3
:1003F000116E000E126E000E136E000E146E000EC3
:10040000156E000E166E000E176E0101170E006FAE
:10041000000E016F000E026F000E036F000E046FDE
:10042000000E056F000E066F000E076F000E086FBE
:10043000000E096F000E0A6F000E0B6F000E0C6F9E
:10044000000E0D6F000E0E6F000E0F6F000E106F7E
:10045000000E116F000E126F000E136F000E146F5E
:10046000000E156F000E166F000E176FFF0E186F3F
:10047000FF0E196FFF0E1A6F000E1B6F000E1C6F20
:10048000000E1D6F000E1E6F000E1F6F000E206FFE
:10049000000E216F000E226F000E236F000E246FDE
:1004A000000E256F000E266F000E276F000E286FBE
:1004B000000E296F000E2A6F000E2B6F000E2C6F9E
:1004C000000E2D6F000E2E6F000E2F6F000E306F7E
:1004D000000E316F000E326F000E336F000E346F5E
:1004E000000E356F000E366F000E376F000E386F3E
:1004F000000E396F000E3A6F000E3B6F000E3C6F1E
:10050000000E3D6F000E3E6F000E3F6F000E406FFD
:10051000000E416F000E426F000E436F000E446FDD
:10052000000E456F000E466F000E476F000E486FBD
:10053000000E496F000E4A6F000E4B6F000E4C6F9D
:10054000000E4D6F000E4E6F000E4F6F000E506F7D
:10055000000E516F000E526F000E536F000E546F5D
:10056000000E556F000E566F000E576F000E586F3D
:10057000000E596F000E5A6F000E5B6F000E5C6F1D
:10058000000E5D6F000E5E6F000E5F6F0001576A18
:10059000676AF28EF28C110E5762CBEF02F0576A47
:1005A000000E582459245A245B245C245D245E24C4
:1005B0005F246024612462246324642465246662C9
:1005C00004EF03F058C012F059C013F05AC014F0F1
:1005D0005BC015F05CC016F05DC017F05EC008F09F
:1005E0005FC009F060C00AF061C00BF062C00CF09F
:1005F00063C00DF064C010F065C011F04F0EAD6E19
:100600009EA800EF03F0C7D74E0EAD6E9EA806EF72
:1006100003F0CBEF02F0006E016E026E036E046E0B
:10062000056E066E076E086E096E0A6E0B6E0C6E16
:100630000D6E0E6E0F6E106E116E126E136E146EC6
:10064000156E166E176E1200C00E8A168C6A120096
:10065000436A456AE86A1266040E4512E86A136640
:10066000080E4512E86A1466100E4512E86A15660F
:10067000200E4512E86A1666400E4512E86A1766B3
:10068000800E4512E86A1066010E4512E86A11668E
:10069000020E4512E86A0866010E4312E86A09660E
:1006A000020E4312E86A0A66040E4312E86A0B66F9
:1006B000080E4312E86A0C66100E4312E86A0D66D3
:1006C000200E431243508A6E45508C6E12003D50EE
:1006D00023E0E750000000000000E75000000000A9
:1006E0000000000000000000E4503F0B8A18436E39
:1006F000E65000000000000000000000E6508C18EA
:10070000456E000000000000000043508A6E0000AB
:10071000000045508C6E1200E12AE12AE12A000017
:1007200000000000000000000000000000000000C9
:1007300000000000000000000000000000000000B9
:1007400000000000000000000000000000000000A9
:1007500000000000000000000000120000EE18F091
:1007600011EE18F021EE00F0E9CF51F0E2CF53F096
:10077000E1CF52F0D9CF54F04A6A180E506E00EE15
:1007800000F010EE4DF049684D6A4E6A4F6A010E56
:10079000556E4C6E566A562A190E566021D0180EA8
:1007A000505C03E0EF504A6013D0EF50496204D030
:1007B0004C50E712552A0CD0496001D009D0EF50B7
:1007C000496E4D6A4E6A4F6A010E556E4C50E712E3
:1007D000D8904C36D8A002D04C36E12AE92ADBD793
:1007E00049504A6E51C0E9FF53C0E2FF52C0E1FFD9
:1007F00054C0D9FF49C0EEFF4DC0E6FF4EC0E6FF32
:100800004FC0E6FF55C0DEFFE9CF51F0E2CF53F015
:0E081000E1CF52F0D9CF54F0502EB1D71200E4
:020000040030CA
:04000000FFFEFDFE04
:080006007AFFFFC0FFE0FF409C
:00000001FF
