:020000040000FA
:04000000000028D103
:04000800000008D01C
:08001800000009D0F2B4AFEFC3
:1000200000F0CD90D58E9EB0AFEF00F011009EBADB
:100030001BEF00F01000000E576225EF00F0FF0EDE
:10004000AE622FEF00F0ACEF00F0010E576232EF1E
:1000500000F0010EAE622FEF00F0ACEF00F0576A37
:10006000ADEF00F0020E57623AEF00F0AE50586E5E
:10007000ACEF00F0030E576242EF00F0AE50596E45
:10008000ACEF00F0040E57624AEF00F0AE505A6E2B
:10009000ACEF00F0050E576252EF00F0AE505B6E11
:1000A000ACEF00F0060E57625AEF00F0AE505C6EF7
:1000B000ACEF00F0070E576262EF00F0AE505D6EDD
:1000C000ACEF00F0080E57626AEF00F0AE505E6EC3
:1000D000ACEF00F0090E576272EF00F0AE505F6EA9
:1000E000ACEF00F00A0E57627AEF00F0AE50606E8F
:1000F000ACEF00F00B0E576282EF00F0AE50616E75
:10010000ACEF00F00C0E57628AEF00F0AE50626E5A
:10011000ACEF00F00D0E576292EF00F0AE50636E40
:10012000ACEF00F00E0E57629AEF00F0AE50646E26
:10013000ACEF00F00F0E5762A2EF00F0AE50656E0C
:10014000ACEF00F0100E5762AAEF00F0AE50666EF2
:10015000ACEF00F0AE50676E572A9E9A100048B27E
:1001600012EF01F064EC03F0480ECF6EA00ECE6EDD
:10017000CD80ADEC02F0FF0E506E00D000D000D06C
:1001800000D000D000D0502EF8D700D000D000D042
:1001900000D000D000D000D000D000D000D000D0DF
:1001A00000D000D000D000D000D000D000D000D0CF
:1001B00000D000D000D000D000D000D000D000D0BF
:1001C00000D000D000D000D000D000D000D000D0AF
:1001D00000D000D000D000D000D000D000D000D09F
:1001E00000D000D000D000D000D000D000D000EE71
:1001F00018F011EE18F021EE00F0406A416AEF505D
:100200003D6E41503D5E19E0EF50416E010E3C6E77
:10021000486800000000000000000000000000002E
:1002200000000000FF0ED76EE10ED66E00003C2AE3
:100230003D503C640CD0486A00001DEC03F0DE50D9
:100240004026E92A0000170E4064D9D7D59E9E901B
:10025000F2941100000E926E000E936E800E946E5A
:10026000000E956E000E966E000E806E000E816E72
:10027000000E826E000E836E000E846E800ED06EB5
:10028000240EF26E8E0EF16E900ED56E000ECA6EBA
:10029000A00ECD6E9D809F80010E476E486A3C6A1D
:1002A000800E3D6E576A400EAF6EAC98AB8EAB9C25
:1002B000AB889D8A9F9A210EAC6E9D8A9F98010EF5
:1002C000006E020E016E030E026E040E036E050E2A
:1002D000046E060E056E070E066E080E076E090EFA
:1002E000086E0A0E096E0B0E0A6E0C0E0B6E0D0ECA
:1002F0000C6E0E0E0D6E0F0E0E6E100E0F6E110E9A
:10030000106E120E116E130E126E140E136E800EFE
:10031000146E810E156EFD0E166EFE0E176E010127
:10032000010E006F010E016F010E026F010E036FCF
:10033000010E046F010E056F010E066F010E076FAF
:10034000010E086F010E096F010E0A6F010E0B6F8F
:10035000010E0C6F010E0D6F010E0E6F010E0F6F6F
:10036000010E106F010E116F010E126F010E136F4F
:10037000010E146F010E156F010E166F010E176F2F
:10038000010E186F000E196F000E1A6F020E1B6F10
:10039000000E1C6F000E1D6F040E1E6F000E1F6FEF
:1003A000000E206F080E216F000E226F000E236FCB
:1003B000100E246F000E256F000E266F200E276F83
:1003C000000E286F000E296F400E2A6F000E2B6F53
:1003D000000E2C6F800E2D6F000E2E6F000E2F6FF3
:1003E000000E306F010E316F000E326F000E336F52
:1003F000020E346F000E356F000E366F040E376F2D
:10040000000E386F000E396F080E3A6F000E3B6F0A
:10041000000E3C6F100E3D6F000E3E6F000E3F6FE2
:10042000200E406F000E416F000E426F400E436F72
:10043000000E446F000E456F800E466F000E476F32
:10044000000E486F000E496F010E4A6F000E4B6F91
:10045000000E4C6F020E4D6F000E4E6F000E4F6F70
:10046000040E506F000E516F000E526F080E536F46
:10047000000E546F000E556F100E566F000E576F22
:10048000000E586F200E596F000E5A6F000E5B6FF2
:10049000400E5C6F000E5D6F000E5E6F800E5F6F32
:1004A0000001576AF28EF28C110E576254EF02F07F
:1004B000576A000E582659265A265B265C265D266A
:1004C0005E265F26602661266226632664266526F0
:1004D00067628DEF02F058C000F059C001F05AC0B9
:1004E00002F05BC003F05CC004F05DC005F05EC0CC
:1004F00008F05FC009F060C00AF061C00BF062C094
:100500000CF063C00DF064C010F065C011F04F0E28
:10051000AD6E9EA889EF02F0C7D74E0EAD6E9EA8B5
:100520008FEF02F054EF02F0006E016E026E036E68
:10053000046E056E066E076E086E096E0A6E0B6E0F
:100540000C6E0D6E0E6E0F6E106E116E126E136EBF
:10055000146E156E166E176E1200426A446A436A74
:10056000466A456AE86A0066010E4212E86A016658
:10057000020E4212E86A0266040E4212E86A03663C
:10058000080E4212E86A0466100E4212E86A056616
:10059000010E4412E86A0666020E4412E86A076613
:1005A000040E4412E86A0866010E4312E86A0966FE
:1005B000020E4312E86A0A66040E4312E86A0B66EA
:1005C000080E4312E86A0C66100E4312E86A0D66C4
:1005D000200E4312E86A0E66010E4612E86A0F66A4
:1005E000020E4612E86A1066010E4512E86A1166AC
:1005F000020E4512E86A1266040E4512E86A136696
:10060000080E4512E86A1466100E4512E86A15666F
:10061000200E4512E86A1666400E4512E86A176613
:10062000800E45124250896E44508B6E43508A6E44
:1006300046508D6E45508C6E12003D5023E0E750C1
:100640003F0B8918426EE750E846E846E846070B3C
:100650008B18446EE4503F0B8A18436EE650E84610
:10066000E846030B8D18466EE6508C18456E4250D6
:10067000896E44508B6E43508A6E46508D6E455045
:100680008C6E1200E12AE12AE12A0000000000003D
:10069000000000000000000000000000000000005A
:1006A000000000000000000000000000000000004A
:1006B000000000000000000000000000000000003A
:1006C000000000000000120000EE18F011EE18F01B
:1006D00021EE00F0E9CF51F0E2CF53F0E1CF52F03C
:1006E000D9CF54F04A6A180E506E00EE00F010EEAA
:1006F0004DF049684D6A4E6A4F6A010E556E4C6E58
:10070000566A562A190E566021D0180E505C03E026
:10071000EF504A6013D0EF50496204D04C50E712BA
:10072000552A0CD0496001D009D0EF50496E4D6A6E
:100730004E6A4F6A010E556E4C50E712D8904C36F7
:10074000D8A002D04C36E12AE92ADBD749504A6EBC
:1007500051C0E9FF53C0E2FF52C0E1FF54C0D9FFCE
:1007600049C0EEFF4DC0E6FF4EC0E6FF4FC0E6FFBA
:1007700055C0DEFFE9CF51F0E2CF53F0E1CF52F0A8
:0A078000D9CF54F0502EB1D712006B
:020000040030CA
:04000000FFFEFDFE04
:080006007AFFFFC0FFE0FF409C
:00000001FF
