:020000040000FA
:0400000000005DD1CE
:04000800000008D01C
:08001800000009D0F2B4E4EF8E
:1000200000F0CD90D58E9EB0E4EF00F011009EBAA6
:100030001BEF00F01000686E000E576226EF00F014
:10004000FF0EAE6263EF00F0E0EF00F0010E5762CA
:1000500066EF00F0530EAE6230EF00F0E0EF00F01C
:10006000490EAE623AEF00F0000EC9EC02F0F28ADF
:1000700057EF00F0500EAE6241EF00F0F29A57EFEA
:1000800000F0520EAE6248EF00F0F28A57EF00F037
:10009000430EAE625EEF00F0000EC9EC02F057EFC7
:1000A00000F0010EAE6263EF00F0E0EF00F04F0EE3
:1000B000AD6E9EA859EF00F0E1EF00F04E0EAD6E70
:1000C0009EA860EF00F0576AE1EF00F0020E576261
:1000D0006EEF00F0AE50586EE0EF00F0030E576286
:1000E00076EF00F0AE50596EE0EF00F0040E57626C
:1000F0007EEF00F0AE505A6EE0EF00F0050E576252
:1001000086EF00F0AE505B6EE0EF00F0060E576237
:100110008EEF00F0AE505C6EE0EF00F0070E57621D
:1001200096EF00F0AE505D6EE0EF00F0080E576203
:100130009EEF00F0AE505E6EE0EF00F0090E5762E9
:10014000A6EF00F0AE505F6EE0EF00F00A0E5762CF
:10015000AEEF00F0AE50606EE0EF00F00B0E5762B5
:10016000B6EF00F0AE50616EE0EF00F00C0E57629B
:10017000BEEF00F0AE50626EE0EF00F00D0E576281
:10018000C6EF00F0AE50636EE0EF00F00E0E576267
:10019000CEEF00F0AE50646EE0EF00F00F0E57624D
:1001A000D6EF00F0AE50656EE0EF00F0100E576233
:1001B000DEEF00F0AE50666EE0EF00F0AE50676E1E
:1001C000572A680E9E9A100048B247EF01F099EC4A
:1001D00003F0480ECF6EA00ECE6ECD80E2EC02F0A2
:1001E000FF0E506E00D000D000D000D000D000D064
:1001F000502EF8D700D000D000D000D000D000D0D2
:1002000000D000D000D000D000D000D000D000D06E
:1002100000D000D000D000D000D000D000D000D05E
:1002200000D000D000D000D000D000D000D000D04E
:1002300000D000D000D000D000D000D000D000D03E
:1002400000D000D000D000D000D000D000D000D02E
:1002500000D000D000D000D000EE18F011EE18F061
:1002600021EE00F0406A416AEF503D6E41503D5E24
:1002700019E0EF50416E010E3C6E4868000000002E
:100280000000000000000000000000000000FF0E61
:10029000D76EE10ED66E00003C2A3D503C640CD077
:1002A000486A000052EC03F0DE504026E92A0000C4
:1002B000170E4064D9D7D59E9E90F2941100000E7F
:1002C000926E000E936E800E946E000E956E000E70
:1002D000966E000E806E000E816E000E826E000E15
:1002E000836E000E846E800ED06E240EF26E8E0E23
:1002F000F16E900ED56E000ECA6EA00ECD6E9D8072
:100300009F80010E476E486A3C6A800E3D6E576AB8
:10031000400EAF6EAC98AB8EAB9CAB889D8A9F9A1B
:10032000210EAC6E9D8A9F98000E006E000E016E2D
:10033000000E026E000E036E000E046E000E056EBF
:10034000000E066E000E076E000E086E000E096E9F
:10035000000E0A6E000E0B6E000E0C6E000E0D6E7F
:10036000000E0E6E000E0F6E000E106E000E116E5F
:10037000000E126E000E136E000E146E000E156E3F
:10038000000E166E000E176E0101170E006F000EA4
:10039000016F000E026F000E036F000E046F000E5F
:1003A000056F000E066F000E076F000E086F000E3F
:1003B000096F000E0A6F000E0B6F000E0C6F000E1F
:1003C0000D6F000E0E6F000E0F6F000E106F000EFF
:1003D000116F000E126F000E136F000E146F000EDF
:1003E000156F000E166F000E176FFF0E186FFF0EC1
:1003F000196FFF0E1A6F000E1B6F000E1C6F000EA0
:100400001D6F000E1E6F000E1F6F000E206F000E7E
:10041000216F000E226F000E236F000E246F000E5E
:10042000256F000E266F000E276F000E286F000E3E
:10043000296F000E2A6F000E2B6F000E2C6F000E1E
:100440002D6F000E2E6F000E2F6F000E306F000EFE
:10045000316F000E326F000E336F000E346F000EDE
:10046000356F000E366F000E376F000E386F000EBE
:10047000396F000E3A6F000E3B6F000E3C6F000E9E
:100480003D6F000E3E6F000E3F6F000E406F000E7E
:10049000416F000E426F000E436F000E446F000E5E
:1004A000456F000E466F000E476F000E486F000E3E
:1004B000496F000E4A6F000E4B6F000E4C6F000E1E
:1004C0004D6F000E4E6F000E4F6F000E506F000EFE
:1004D000516F000E526F000E536F000E546F000EDE
:1004E000556F000E566F000E576F000E586F000EBE
:1004F000596F000E5A6F000E5B6F000E5C6F000E9E
:100500005D6F000E5E6F000E5F6F0001576AF28E26
:10051000F28C120E576289EF02F0576A000E5824CF
:1005200059245A245B245C245D245E245F246024C7
:10053000612462246324642465246762C2EF02F0AC
:1005400058C000F059C001F05AC002F05BC003F07F
:100550005CC004F05DC005F05EC008F05FC009F04B
:1005600060C00AF061C00BF062C00CF063C00DF017
:1005700064C010F065C011F04F0EAD6E9EA8BEEFC6
:1005800002F0C7D74E0EAD6E9EA8C4EF02F089EF01
:1005900002F0006E016E026E036E046E056E066E52
:1005A000076E086E096E0A6E0B6E0C6E0D6E0E6E87
:1005B0000F6E106E116E126E136E146E156E166E37
:1005C000176E1200426A446A436A466A456AE86ADC
:1005D0000066010E4212E86A0166020E4212E86AE3
:1005E0000266040E4212E86A0366080E4212E86AC6
:1005F0000466100E4212E86A0566010E4412E86AAB
:100600000666020E4412E86A0766040E4412E86A9F
:100610000866010E4312E86A0966020E4312E86A90
:100620000A66040E4312E86A0B66080E4312E86A73
:100630000C66100E4312E86A0D66200E4312E86A3B
:100640000E66010E4612E86A0F66020E4612E86A4E
:100650001066010E4512E86A1166020E4512E86A3C
:100660001266040E4512E86A1366080E4512E86A1F
:100670001466100E4512E86A1566200E4512E86AE7
:100680001666400E4512E86A1766800E4512425003
:10069000896E44508B6E43508A6E46508D6E455025
:1006A0008C6E12003D5023E0E7503F0B8918426EDC
:1006B000E750E846E846E846070B8B18446EE450DE
:1006C0003F0B8A18436EE650E846E846030B8D1848
:1006D000466EE6508C18456E4250896E44508B6EC3
:1006E00043508A6E46508D6E45508C6E1200E12A42
:1006F000E12AE12A000000000000000000000000E4
:1007000000000000000000000000000000000000E9
:1007100000000000000000000000000000000000D9
:1007200000000000000000000000000000000000C9
:10073000120000EE18F011EE18F021EE00F0E9CFF3
:1007400051F0E2CF53F0E1CF52F0D9CF54F04A6AE2
:10075000180E506E00EE00F010EE4DF049684D6A34
:100760004E6A4F6A010E556E4C6E566A562A190E25
:10077000566021D0180E505C03E0EF504A6013D051
:10078000EF50496204D04C50E712552A0CD0496012
:1007900001D009D0EF50496E4D6A4E6A4F6A010E82
:1007A000556E4C50E712D8904C36D8A002D04C363B
:1007B000E12AE92ADBD749504A6E51C0E9FF53C00C
:1007C000E2FF52C0E1FF54C0D9FF49C0EEFF4DC067
:1007D000E6FF4EC0E6FF4FC0E6FF55C0DEFFE9CFA3
:1007E00051F0E2CF53F0E1CF52F0D9CF54F0502E78
:0407F000B1D712006B
:020000040030CA
:04000000FFFEFDFE04
:080006007AFFFFC0FFE0FF409C
:00000001FF
