:100000000C948E010C94B6010C94B6010C94B601BC
:100010000C94B6010C94B6010C94B6010C94B60184
:100020000C94B6010C94B6010C94811B0C94081C22
:100030000C94B6010C94B6010C94B6010C94B60164
:100040000C94B6010C94B6010C94B6010C94B60154
:100050000C94E8070C94B6010C94B6010C94F811BA
:100060000C94B6010C942E150C947C150C94B601CE
:100070000C94B6010C94B6010C94B6010C94B60124
:100080000C94B6010C94B6010C94B6010C94B60114
:100090000C94B6010C94B6010C94B6010C94B60104
:1000A0000C94B6010C94B6010C94B60153796E749D
:1000B0006178203A20736571207B696E6465787D74
:1000C000207B636F756E747D207B64656C61797DC8
:1000D000207B666F72776172647D000000000024EF
:1000E0000027002A002D0030000000000025002815
:1000F000002B002E00310000000000230026002904
:10010000002C002F0004040404040304050202026E
:1001100002040302020202060606060606040402A0
:100120000202040408020110408040102040804078
:10013000800802040180402010020110801020403D
:10014000400000000200080E0000030401000B0044
:100150000000000000000000000000000000000798
:100160000605040100080A0B0C0D09080B00020229
:100170000201000904000001020200000524001031
:1001800001052401010104240206052406000107DB
:1001900005810310004009040100020A0000000765
:1001A0000502024000000705830240000004030925
:1001B000042203410072006400750069006E006F44
:1001C0000020004C0065006F006E0061007200644A
:1001D000006F001803410072006400750069006E32
:1001E000006F0020004C004C004300120100020090
:1001F000000040412336800001010200011201008D
:10020000020200004041233680000101020001008B
:10021000C18081C105010902A1010901A100850177
:1002200005091901290315002501950375018102AE
:1002300095017505810305010930093109381581DA
:10024000257F750895038106C0C005010906A10137
:100250008502050719E029E71500250175019508B4
:1002600081029501750881039506750815002565BD
:100270000507190029658100C00904020001030077
:1002800000000921010100012265000705840340E7
:10029000000100000000000000002A2B28000000E0
:1002A000000000000000000000000000000000004E
:1002B00000002C9EB4A0A1A2A434A6A7A5AE362D02
:1002C0003738271E1F20212223242526B333B62E9C
:1002D000B7B89F8485868788898A8B8C8D8E8F900E
:1002E0009192939495969798999A9B9C9D2F3130D3
:1002F000A3AD350405060708090A0B0C0D0E0F10F7
:100300001112131415161718191A1B1C1DAFB1B0B2
:10031000B50050046214E816BD1A8B1D11241FBECF
:10032000CFEFDAE0DEBFCDBF17E0A0E0B1E0EAEC4E
:10033000F2E402C005900D92A032B107D9F719E09E
:10034000A0E2B7E001C01D92A236B107E1F713E0C9
:10035000CCE1D3E004C02297FE010E941D21C231EE
:10036000D107C9F70E943E170C9463210C9400003A
:10037000CF93DF93BC018230910510F462E070E00E
:10038000A0916009B0916109ED01E0E0F0E040E08A
:1003900050E021C0888199818617970769F48A8186
:1003A0009B81309719F09383828304C090936109F5
:1003B00080936009FE0134C06817790738F441154D
:1003C000510519F08417950708F4AC01FE018A81E4
:1003D0009B819C01E9012097E9F641155105A9F19E
:1003E000CA01861B970B049708F4BA01E0E0F0E01D
:1003F0002AC08D919C91119784179507F9F4641781
:10040000750781F412968D919C911397309719F08E
:100410009383828304C09093610980936009FD01F6
:1004200032964CC0CA01861B970BFD01E80FF91FDD
:100430006193719302978D939C9340C0FD018281DB
:1004400093819C01D9011097A1F680915E0990914A
:100450005F09892B41F48091D8039091D90390933F
:100460005F0980935E094091DA035091DB034115E7
:10047000510541F44DB75EB78091D6039091D703F3
:10048000481B590B20915E0930915F09CA01821BFC
:10049000930B8617970780F0AB014E5F5F4F841771
:1004A000950750F0420F531F50935F0940935E0928
:1004B000F9016193719302C0E0E0F0E0CF01DF91B8
:1004C000CF910895CF93DF93009709F450C0EC01CA
:1004D00022971B821A82A0916009B091610910973E
:1004E00009F140E050E0AC17BD0708F1BB83AA83D7
:1004F000FE0121913191E20FF31FAE17BF0779F48E
:100500008D919C911197280F391F2E5F3F4F398392
:10051000288312968D919C9113979B838A83411512
:10052000510571F4D0936109C093600920C01296FF
:100530008D919C911397AD01009711F0DC01D3CF01
:10054000FA01D383C28321913191E20FF31FCE17B9
:10055000DF0769F488819981280F391F2E5F3F4F8B
:10056000FA01318320838A819B8193838283DF9187
:10057000CF910895A0E0B0E0E0ECF2E00C942E21E1
:100580006C01009729F4CB010E94B8016C01C1C035
:100590008EEF882E8FEF982E8C0C9D1C8601060FF7
:1005A000171F0815190508F4B2C0F401A081B18124
:1005B000A617B707B8F0A530B10508F4AAC0CD0159
:1005C00004978617970708F4A4C01297A61BB70BC9
:1005D000F801A193B193D4016D937C93CF010E9454
:1005E000620297C07B01EA1AFB0AEEEFFFEFEE0E04
:1005F000FF1E36016A0E7B1EC0916009D091610911
:1006000044245524AA24BB244AC0C615D705E1F5C5
:10061000488159814E155F05B8F1CA0104978E15BE
:100620009F05B0F41296A40FB51FF401B183A08307
:100630002A813B814114510431F0D20113963C933D
:100640002E93129766C0309361092093600961C0B0
:100650008A819B81F80193838283425050404E19D6
:100660005F09518340834114510431F0D201139644
:100670001C930E93129704C01093610900936009B4
:10068000F4017183608345C088819981A816B906F9
:1006900008F45C012E018A819B819C01E90120976D
:1006A00009F0B3CF80915E0990915F098615970597
:1006B000E9F4A616B706D0F42091DA033091DB03F3
:1006C0002115310541F42DB73EB78091D6039091A5
:1006D000D703281B390B02171307C8F410935F09BF
:1006E00000935E09D4016D937C9313C0CB010E94EB
:1006F000B801EC01009759F0F40140815181B60135
:100700000E94D403C6010E9462026E0102C0CC2482
:10071000DD24C601CDB7DEB7E0E10C944A21FC012F
:1007200088279927E89421912032E9F3293010F0A5
:100730002E30C8F32B3241F02D3239F4689404C0C6
:100740000E944804820F911D219120532A30C0F34A
:100750001EF4909581959F4F08951F93FC01992752
:100760008827BC01E89411911032E9F3193010F098
:100770001E30C8F31B3251F01D3249F4689406C094
:100780000E943304610F711D811D911D1191105341
:100790001A30B0F33EF490958095709561957F4F37
:1007A0008F4F9F4F1F910895FB01DC0102C0019004
:1007B0000D9241505040D8F70895FB01DC010190A3
:1007C0000D920020E1F70895FB01DC0141505040FB
:1007D00030F08D910190801919F40020B9F7881B31
:1007E000990B0895FB01DC014150504048F0019005
:1007F0000D920020C9F701C01D9241505040E0F712
:100800000895009731F4DA018D919C91009709F4D5
:100810000EC0DC01FB013D912191222319F032171A
:10082000C9F3FACF332331F4DA011D921C928827E1
:10083000992708951197AF93BF93FB013D912191A3
:10084000321771F4332321F488279927119702C0B6
:100850001E921196FA01A193B0839F918F910895F2
:10086000222369F7EACF592F482F372F262F660FFB
:10087000771F881F991F660F771F881F991F620FA8
:10088000731F841F951F660F771F881F991F089578
:100890007AE0979F902D879F802D910D11240895C8
:1008A00080E297E00E94990CACEBB7E0E6E3F4E05D
:1008B00086E001900D928150E1F7A2ECB7E0EEE105
:1008C000F4E086E001900D928150E1F7A8ECB7E0EA
:1008D000E6E3F4E086E001900D928150E1F7AEECA2
:1008E000B7E0EEE1F4E086E001900D928150E1F78F
:1008F000A4EDB7E0EEEEF3E086E001900D928150BA
:10090000E1F7AAEDB7E0E6E3F4E086E001900D92AE
:100910008150E1F7A0EEB7E0EEE1F4E086E001906F
:100920000D928150E1F7A6EEB7E0E8E3F5E086E04E
:1009300001900D928150E1F7ACEEB7E0ECEBF5E001
:1009400086E001900D928150E1F7A2EFB7E0E0E47C
:10095000F6E086E001900D928150E1F7A8EFB7E054
:10096000E0E6F4E086E001900D928150E1F7AEEF11
:10097000B7E0E6ECF4E086E001900D928150E1F7FB
:10098000A4E0B8E0ECE9F4E086E001900D9281503B
:10099000E1F7AAE0B8E0EEE8F6E086E001900D921B
:1009A0008150E1F7A0E1B8E0E6E0F4E086E00190F4
:1009B0000D928150E1F786E198E00E94BD0D089507
:1009C00080E998E060E071E00E94F719089580E9FD
:1009D00098E064E171E00E94F71980E697E00E94D8
:1009E0006E0E089580E998E06CE171E00E94F719BD
:1009F00080E697E00E941D100895EF92FF920F93FA
:100A00001F93DF93CF93CDB7DEB72E970FB6F89431
:100A1000DEBF0FBECDBF80E998E064E271E00E94C6
:100A2000F71980E297E08E010F5F1F4FB8010E9417
:100A30000F11EE24FF2480E998E0B7014AE050E06E
:100A40000E94EA1880E998E061E471E00E94FD18D4
:100A5000F801EE0DFF1D80E998E060814AE050E06A
:100A60000E948C180894E11CF11C8EE0E816F10439
:100A700011F72E960FB6F894DEBF0FBECDBFCF9103
:100A8000DF911F910F91FF90EF9008950F931F93A7
:100A900086E198E00E94C20C009729F480E998E072
:100AA00065E471E009C00E948F03082F833438F099
:100AB00080E998E066E571E00E94F7191EC080E9C0
:100AC00098E0602F4AE050E00E948C18802F90E060
:100AD0008C01000F111F080F191F000F111F0C525E
:100AE000184FF8016081718180E998E00E94F71940
:100AF00080E697E0B8010E94590E1F910F9108956A
:100B0000AF92BF92CF92DF92EF92FF920F931F931B
:100B1000CF93DF9386E198E00E94C20CFC0100971E
:100B200029F480E998E065E471E03DC080818F336D
:100B300081F580E998E06CEA70E00E94C61780E9D0
:100B400098E06BE671E00E94F71904ED17E0C0E051
:100B5000D0E080E998E060E871E00E94FD1880E94B
:100B600098E0BE014AE050E00E94691880E998E0F0
:100B700060E20E949E17F8016081718180E998E02F
:100B80000E94F71921960A5F1F4FCB30D10509F754
:100B9000B5C0CF010E948F03182F833438F080E94D
:100BA00098E066E571E00E94F719A8C086E198E038
:100BB0000E94C20C009721F4E1E0AE2EB12C03C0DC
:100BC0000E948F035C0186E198E00E94C20C0097AE
:100BD00019F4C0E0D0E003C00E948F03EC0186E16D
:100BE00098E00E94C20C009721F471E0C72ED12C2E
:100BF00003C00E948F036C0180E998E063E871E014
:100C00000E94FD1880E998E0612F4AE050E00E94C0
:100C10007A1880E998E063E971E00E94FD18E12EFE
:100C2000FF24F701EE0FFF1FEE0DFF1DEE0FFF1F5C
:100C3000EC52F84F6081718180E998E00E94FD18C4
:100C400080E998E06DE971E00E94FD1880E998E084
:100C5000B5014AE050E00E94691880E998E068EA2E
:100C600071E00E94FD1880E998E0BE014AE050E082
:100C70000E94691880E998E065EB71E00E94FD1818
:100C8000C114D10429F080E998E063EC71E004C05C
:100C900080E998E06DEC71E00E94F719AE0160E028
:100CA00070E080E697E00E94530E00E010E0E7015C
:100CB000CC0FDD1FCE0DDF1DCC0FDD1FCC52D84F6A
:100CC0001AC0C114D10459F080E697E02881398117
:100CD0004A815B816C817D810E94F90F0AC080E6A8
:100CE00097E0288139814A815B816C817D810E94F6
:100CF000950F0F5F1F4F0A151B0518F3DF91CF915A
:100D00001F910F91FF90EF90DF90CF90BF90AF9029
:100D100008950F931F93DF93CF930F92CDB7DEB754
:100D200086E198E00E94C20C009749F00E948F0370
:100D30008C0186E198E00E94C20C009739F480E9AA
:100D400098E065E471E00E94F71949C00E94AD0384
:100D5000698380E998E068ED71E00E94FD1880E900
:100D600098E0B8014AE050E00E94691880E998E0F4
:100D700065EE71E00E94FD1880E297E0602F0E940E
:100D80009E10AB01BC0180E998E02AE030E00E94AF
:100D90005A1880E998E068EE71E00E94FD1880E939
:100DA00098E06AEE71E00E94FD1880E998E06981A0
:100DB0004AE050E00E948C1880E297E0602F0E9489
:100DC0009E10AB01BC0180E297E09E012F5F3F4F78
:100DD00001E00E94D41080E297E00E94CB110F90B6
:100DE000CF91DF911F910F91089580E998E068EF0E
:100DF00071E00E94F71980E297E00E945A1108956D
:100E000080E998E06FEF71E00E94F71980E297E0C7
:100E10000E945F11089586E198E00E94C20C00973D
:100E200029F480E998E065E471E01FC00E948F0317
:100E300020E0892B09F021E020934208222359F079
:100E400080E697E06FEF79E00E944F0E80E998E02E
:100E500065E072E00AC080E697E060E070E00E9422
:100E60004F0E80E998E065E172E00E94F71908955D
:100E70001F9380E998E06EE472E00E94F71980E920
:100E800098E066E572E00E94FD1880E297E00E941B
:100E9000870AAB01BC0180E998E022E030E00E94C3
:100EA000E41980E998E061E672E00E94FD1880E2B2
:100EB00097E00E94540A682F80E998E04AE050E0E9
:100EC0000E947A1880E998E06CE672E00E94F719B7
:100ED00080E998E06EE672E00E94FD1880E297E0FB
:100EE0006AE00E943B0A882329F480E998E068E7D9
:100EF00072E004C080E998E062E872E00E94F719AD
:100F000080E998E06DE872E00E94FD1880E297E0C9
:100F10006BE00E943B0A882329F480E998E068E7A7
:100F200072E004C080E998E062E872E00E94F7197C
:100F300080E998E067E972E00E94F71910E080E923
:100F400098E0612F4AE050E00E947A1880E998E02A
:100F50006CE972E00E94FD1880E297E0612F0E9428
:100F6000260A882329F080E998E06EE972E004C03F
:100F700080E998E060EA72E00E94FD1880E998E05C
:100F800062EA72E00E94FD181F5F1630C1F680E928
:100F900098E00E94A6171F91089580E998E065EAFD
:100FA00072E00E94F71980E297E00E94D00A08954B
:100FB00080E297E068E00E94440A86E198E00E949F
:100FC000CD0C61E070E080E090E00E944012089556
:100FD0001F920F920FB60F9211242F933F934F93AE
:100FE0005F936F937F938F939F93AF93BF93EF9391
:100FF000FF9380E297E00E94A10A10928500109270
:101000008400FF91EF91BF91AF919F918F917F915C
:101010006F915F914F913F912F910F900FBE0F9065
:101020001F901895DF93CF93CDB7DEB7CC59D04042
:101030000FB6F894DEBF0FBECDBF80E998E060E840
:1010400075E20E941714CE0101960E94990C8B81C3
:101050009C8190932307809322078D819E81AF818D
:10106000B8858093240790932507A0932607B09313
:10107000270789859A85AB85BC858093280790933F
:101080002907A0932A07B0932B078D859E859093FF
:101090002D0780932C078F85988990932F07809335
:1010A0002E0789899A8990933107809330078B891D
:1010B0009C8990933307809332078D899E89909302
:1010C0003507809334078F89988D909337078093E5
:1010D0003607898D9A8D90933907809338078B8DC9
:1010E0009C8D90933B0780933A078D8D80933C07AE
:1010F0008E8D80933D078F8D80933E0788A18093CE
:101100003F0789A1809340078AA1809341078BA163
:101110009CA19093430780934207A4E4B7E0FE01AB
:10112000B5968EE001900D928150E1F7A2E5B7E00F
:10113000FE01F3968EE001900D928150E1F7A0E65A
:10114000B7E0FE01EF5BFF4F84E101900D9281500B
:10115000E1F7FE01EB5AFF4F808180937407FE0197
:10116000EA5AFF4F808180937507FE01E95AFF4FCD
:10117000808191819093770780937607FE01E75AEB
:10118000FF4F80819181A281B381809378079093F2
:101190007907A0937A07B0937B07FE01E15AFF4FCE
:1011A0008081918190937F0780937E07FE01EF59A4
:1011B000FF4F80819181A281B381809380079093BA
:1011C0008107A0938207B0938307FE01EB59FF4F7D
:1011D00080819181A281B381809384079093850758
:1011E000A0938607B0938707FE01E759FF4F8081E0
:1011F00091819093890780938807FE01E559FF4FFD
:101200008081918190938B0780938A07FE01E35937
:10121000FF4F8081918190938D0780938C07FE0111
:10122000E159FF4F8081918190938F0780938E07C2
:10123000FE01EF58FF4F8081918190939107809339
:101240009007FE01ED58FF4F8081918190939307A5
:1012500080939207FE01EB58FF4F8081918190931C
:10126000950780939407FE01E958FF4F8081918193
:101270009093970780939607FE01E758FF4F808170
:1012800080939807FE01E658FF4F8081809399076D
:10129000FE01E558FF4F808180939A07FE01E458D4
:1012A000FF4F808180939B07FE01E358FF4F8081B1
:1012B00080939C07FE01E258FF4F808180939D0739
:1012C000FE01E158FF4F8081918190939F078093A9
:1012D0009E07A0EAB7E0FE01EF57FF4F8EE00190B6
:1012E0000D928150E1F7AEEAB7E0FE01E157FF4F02
:1012F0008EE001900D928150E1F780E297E00E942C
:10130000D00A86E198E060EE74E00E94BE0C86E1AF
:1013100098E06AEA72E04DEC57E00E946B0D86E1BE
:1013200098E06FEA72E048E357E00E946B0D86E1B7
:1013300098E064EB72E04BE057E00E946B0D86E1B1
:1013400098E06AEB72E045EF56E00E946B0D86E193
:1013500098E061EC72E040E057E00E946B0D86E19E
:1013600098E067EC72E049E856E00E946B0D86E178
:1013700098E06BEC72E040E855E00E946B0D86E16E
:1013800098E06FEC72E046E455E00E946B0D86E158
:1013900098E064ED72E042EF54E00E946B0D86E14C
:1013A00098E06AED72E047EE54E00E946B0D86E132
:1013B00098E060EE72E04DEF54E00E946B0DF894FF
:1013C00010928000109281008EEE95E89093850037
:1013D000809384008091810084608093810080915B
:1013E0006F00816080936F007894C456DF4F0FB612
:1013F000F894DEBF0FBECDBFCF91DF9108950F935C
:101400001F938C0180E998E064EE72E00E94FD1861
:1014100080E998E0B8014AE050E00E94691880E94C
:1014200098E064E472E00E94FD1880E998E00E9470
:101430003F140A97D1F780E998E069E472E00E94CE
:10144000F71980E090E01F910F9108951F93162FD8
:1014500082E060E00E94B413612F617083E00E941B
:10146000B413127084E0612F0E94B41385E00E94CF
:10147000E7131F910895862F0E94E71320E0892B20
:1014800009F021E0822F08951F93162F862F0E94C6
:10149000E713892B19F0812F60E002C0812F61E0F2
:1014A0000E94B4131F910895EF92FF920F931F9320
:1014B000CF93DF93EE24FF248701C0E0D0E081E0EA
:1014C0000E94EF12A0E0B0E0E80EF91E0A1F1B1FF9
:1014D0002196C436D10599F780E2E8168EE4F80625
:1014E00080E0080780E0180710F024E608C0C80173
:1014F000B70128EC30E040E050E00E94E520822F68
:10150000DF91CF911F910F91FF90EF90089580E0B0
:101510000E94EF12A0E0B0E0BC01CD010E94961F36
:1015200020E030E040EA50E40E944C2020E030E02F
:1015300040E85AE30E944C209B01AC010E94951E9A
:1015400008951F93CF93DF93EC0169E00E94440A52
:10155000CE010E94540A182F8135F0F080E998E0FE
:101560006AE673E00E94FD1880E998E0612F4AE086
:1015700050E00E947A1880E998E063E873E00E94E6
:10158000F7191B3548F080E998E067E873E00E949E
:10159000F719CE010E945F11DF91CF911F9108953D
:1015A000EF92FF920F931F93DF93CF93CDB7DEB7E8
:1015B000CC5DD0400FB6F894DEBF0FBECDBF7C012E
:1015C000CE0101960E94D4118B819C81D701139684
:1015D0009C938E9312978D819E81AF81B885F70180
:1015E00084839583A683B78389859A85AB85BC85DB
:1015F00080879187A287B3878D859E85958784870D
:101600008F8598899787868789899A89918B808B1E
:101610008B899C89938B828B8D899E89958B848BFA
:101620008F89988D978B868B898D9A8D918F808FDE
:101630008B8D9C8D938F828F8D8D848F8E8D858FDA
:101640008F8D868F88A1878F89A180A38AA181A38E
:101650008BA19CA193A382A3D7019496FE01B5967A
:101660008EE001900D928150E1F7D701D296FE01F4
:10167000F3968EE001900D928150E1F7C7010E9430
:101680006411D70112968D919C911397FE01ED5B29
:10169000FF4F9183808314968D919D910D90BC9105
:1016A000A02DFE01EB5BFF4F80839183A283B38368
:1016B000F70180859185A285B385FE01E75BFF4F29
:1016C00080839183A283B38385E097E0FE01EF5B83
:1016D000FF4F91838083D7011C968D919C911D971C
:1016E000FE01E35BFF4F918380831E968D919C9159
:1016F0001F97FE01E15BFF4F9183808350968D9190
:101700009C915197FE01EF5AFF4F9183808352962F
:101710008D919C915397FE01ED5AFF4F91838083E9
:1017200054968D919C915597FE01EB5AFF4F9183F2
:10173000808356968D919C915797FE01E95AFF4FF1
:101740009183808358968D919C915997FE01E75A19
:10175000FF4F918380835A968D919C915B97FE01F8
:10176000E55AFF4F918380835C968C915C97FE01D4
:10177000E35AFF4F80835D968C915D97FE01E25A9C
:10178000FF4F80835E968C915E97FE01E15AFF4F7A
:1017900080835F968C915F97FE01E05AFF4F8083B4
:1017A00090968C919097FE01EF59FF4F8083919610
:1017B0008C919197FE01EE59FF4F808392968D9107
:1017C0009C919397FE01ED59FF4F91838083DE0139
:1017D000AB59BF4FF701B4968EE001900D92815046
:1017E000E1F7DE01AD58BF4FF701F2968EE00190B0
:1017F0000D928150E1F78E010F571F4FC801BE01B6
:101800006F5B7F4F0E943D0ED701A05CBF4FF80178
:1018100084E101900D928150E1F7E4E5F0E0EE0EF5
:10182000FF1EFE01EF57FF4F8489D7018D938589F5
:101830008D93868997898D939D937D01208D318D20
:10184000428D538D2D933D934D935C93139786E07A
:1018500090E0E80EF91E868D978DD7018D939D93AC
:1018600020A131A142A153A12D933D934D935D93AE
:1018700024A135A146A157A12D933D934D935D938E
:1018800080A591A58D939D9382A593A58D939D93FE
:1018900084A595A58D939D9386A597A58D939D93DE
:1018A00080A991A98D939D9382A993A98D939D93CE
:1018B00084A995A98D939D9386A997A98D939D93AE
:1018C00080AD8D9381AD8D9382AD8D9383AD8D93DE
:1018D00084AD8D9385AD8D937D0186AD97AD8D9350
:1018E0009C93E2E8FFEFEE0EFF1ED701A058BF4F1A
:1018F000FE01EF53FF4F8EE001900D928150E1F712
:10190000D701A257BF4FFE01E153FF4F8EE0019078
:101910000D928150E1F7C452DF4F0FB6F894DEBF4D
:101920000FBECDBFCF91DF911F910F91FF90EF9030
:1019300008950F931F938C010E94D411C801805CFD
:101940009F4F0E94351088E061E00E94271389E0D4
:1019500061E00E94271382E061E00E94271383E088
:1019600061E00E94271384E061E00E94271385E074
:1019700060E00E9427131F910F910895FC0174836A
:1019800063830895BC01AC01465D5F4F80E090E049
:101990006B5F7F4F0E94010408952F923F924F92F8
:1019A0005F926F927F928F929F92AF92BF92CF92EF
:1019B000DF92EF92FF920F931F93CF93DF938C01EF
:1019C00028E0222E312C280E391E95E0492E512C6C
:1019D000400E511E8AE2682E712C600E711E57C097
:1019E00080E998E00E943F14F82ED80117968C9158
:1019F000F816B1F5C101B201A3010E9401045C0116
:101A0000009739F1F8018281882E9924CC24DD24B5
:101A1000EE24FF2418C0D801CD91DC91CE0DDF1D3E
:101A2000C501BE0148E050E00E94E403EBE0F0E0B5
:101A3000EE0EFF1E009721F4E985FA85099509C08D
:101A40000894C11CD11CC814D9042CF329C0C501A9
:101A50000995D80118961C92189799961C9217C050
:101A60008F2D992787FD90950E942321892B79F04E
:101A7000F80181A5803258F4E80FF11DF0868F5FE0
:101A8000D80199968C93F801E80FF11D108680E932
:101A900098E00E941814181619060CF4A1CF08C07B
:101AA000D8011396ED91FC911497309781F6D1CF20
:101AB000DF91CF911F910F91FF90EF90DF90CF902A
:101AC000BF90AF909F908F907F906F905F904F905E
:101AD0003F902F900895AF92BF92CF92DF92EF92F6
:101AE000FF920F931F938C016B015A01DC01129638
:101AF0008C91129790E001963BE0E32EF12C8E9DA5
:101B0000B0018F9D700D9E9D700D11248D919C9143
:101B10000E94BA029C01F8019183808382814BE08C
:101B2000849FC0011124820F931FB60148E050E04A
:101B30000E94F203D80112968C91129790E0FC015A
:101B4000EE9DC001EF9D900DFE9D900D1124ED9135
:101B5000FC911197E80FF91FB286A18612968C911D
:101B600012978F5F12968C931F910F91FF90EF90B9
:101B7000DF90CF90BF90AF9008950F931F938C018B
:101B8000FC01118210821282148213828AE0878300
:101B900013A612A6C80105966FE973E00E94DD0343
:101BA000F801108611A61F910F910895CF93DF932E
:101BB000FC01EB018A819B81938382838C819D81CF
:101BC000AE81BF8184839583A683B78388859985F9
:101BD000AA85BB8580879187A287B38785E097E038
:101BE000918380838C859D85958784878E859F854D
:101BF0009787868788899989918B808B8A899B8929
:101C0000938B828B8C899D89958B848B8E899F8900
:101C1000978B868B888D998D918F808F8A8D9B8DE8
:101C2000938F828F8C8D848F8D8D858F8E8D868FF7
:101C30008F8D878F88A180A389A181A38AA19BA171
:101C400093A382A39F012C5D3F4FAB014C5D5F4F7F
:101C50008EE0DA010D90AD01D9010D929D01815008
:101C6000C1F7DF01D296FE01F2968EE001900D924F
:101C70008150E1F7DF91CF9108950F931F938C016D
:101C80004C960E94D60DF801148A158A178A168A76
:101C9000108E118E128E138E1F910F910895FC01DC
:101CA000778B668B0895FC01408F518F628F738F05
:101CB0000895DC0154968C915497E82FF0E0EE0FD4
:101CC000FF1FEA0FFB1F718360838F5F54968C9315
:101CD0005497853110F054961C920895FC01148A93
:101CE000158A08953F924F925F926F927F928F92E2
:101CF0009F92AF92BF92CF92DF92EF92FF920F939B
:101D00001F93DF93CF9300D000D000D0CDB7DEB7C4
:101D10003C0129833A834B835C836D837E83C801B6
:101D2000880F991F9C0143E0220F331F4A95E1F76A
:101D3000820F931FCD80DE80C80ED91ED60150962B
:101D4000ED91FC915197309709F00995D301569682
:101D5000ED91FC915797309719F48824992403C08A
:101D6000C80109954C013CE1432E512C460C571CEF
:101D70003C2C2FE9E22E26E0F22EC6015C010A2D52
:101D80000319F5011281163E09F450C0103F61F0AD
:101D9000113F28F41B3E41F01C3E09F508C0113FDD
:101DA00031F0153FE1F406C0D7011C913AC0F701AC
:101DB000118137C0D7019C9111968C91282F9817CB
:101DC00008F4292F891708F4892F90E0821B9109C4
:101DD00062E070E00E94D220162F120F22C0F7019D
:101DE00090818181282F981708F4292F121728F045
:101DF000891708F4892F8117A0F480E998E061EA37
:101E000073E00E94FD1880E998E0612F4AE050E0FD
:101E10000E947A1880E998E064EB73E00E94F71959
:101E200010E0C201602F412F0E94CF100894A11C26
:101E3000B11C82E090E0E80EF91E9BEBE91696E0FB
:101E4000F90609F09CCFC2010E94CB11D6016D9119
:101E50007C916115710529F466E970E080E090E0FD
:101E600002C080E090E00E944012F301608D718D0D
:101E7000828D938D0E944012C40126960FB6F8946D
:101E8000DEBF0FBECDBFCF91DF911F910F91FF90AD
:101E9000EF90DF90CF90BF90AF909F908F907F900A
:101EA0006F905F904F903F900895AF92BF92CF9206
:101EB000DF92EF92FF920F931F93DF93CF9300D0A7
:101EC00000D000D0CDB7DEB75C0129833A834B83C5
:101ED0005C836D837E836701780110C00894E108FC
:101EE000F108C50129813A814B815C816D817E8138
:101EF00087010E94720E9C01009729F4CE14DF0422
:101F000068F320E030E0C90126960FB6F894DEBFF2
:101F10000FBECDBFCF91DF911F910F91FF90EF903A
:101F2000DF90CF90BF90AF900895EF92FF920F9304
:101F30001F93DF93CF9300D000D000D0CDB7DEB792
:101F400029833A834B835C836D837E838A01512F7F
:101F5000EE24FF240E94550F26960FB6F894DEBF9C
:101F60000FBECDBFCF91DF911F910F91FF90EF90EA
:101F70000895AF92BF92CF92DF92EF92FF920F93AC
:101F80001F93DF93CF9300D000D000D0CDB7DEB742
:101F90005C0129833A834B835C836D837E83670175
:101FA000780110C0C50129813A814B815C816D8126
:101FB0007E8187010E94720E9C01009741F4089473
:101FC000E11CF11CEC14FD0468F320E030E0C901D1
:101FD00026960FB6F894DEBF0FBECDBFCF91DF912E
:101FE0001F910F91FF90EF90DF90CF90BF90AF9037
:101FF0000895EF92FF920F931F93DF93CF9300D03A
:1020000000D000D0CDB7DEB729833A834B835C8301
:102010006D837E837A015F2D00E010E00E94B90F8E
:1020200026960FB6F894DEBF0FBECDBFCF91DF91DD
:102030001F910F91FF90EF900895EF92FF920F93F1
:102040001F937C0100E918E0C80167EB73E00E9470
:10205000FD18C801F70164894AE050E00E948C181D
:102060001F910F91FF90EF9008950F931F938C0194
:102070004C960E94D41184E1D8011D928A95E9F70B
:10208000F801148A158A178A168AD80158961D9263
:102090001D921D921C925B971F910F910895CF93F3
:1020A000DF939C01FB0182819381D90113969C935C
:1020B0008E93129784819581A681B781E9018C83E3
:1020C0009D83AE83BF8380859185A285B3858887F4
:1020D0009987AA87BB8785E097E099838883848561
:1020E00095859D878C87868597859F878E87808934
:1020F0009189998B888B828993899B8B8A8B848920
:1021000095899D8B8C8B868997899F8B8E8B808DF3
:10211000918D998F888F828D938D9B8F8A8F848DDF
:102120008C8F858D8D8F868D8E8F878D8F8F80A1E3
:1021300088A381A189A3DF91CF910895DF93CF93E5
:10214000CDB7DEB7E8970FB6F894DEBF0FBECDBFB0
:10215000FE013196A7EBB6E088E30D900192815025
:10216000E1F7683328F020E030E040E050E00CC0B8
:10217000E62FF0E0EE0FFF1FEE0FFF1FEC0FFD1F2D
:102180002181328143815481B901CA01E8960FB699
:10219000F894DEBF0FBECDBFCF91DF910895FC0153
:1021A000E60FF11D44A30895BF92CF92DF92EF9204
:1021B000FF920F931F93CF93DF936C017901B02EA1
:1021C00030E020E001E010E01EC0C32FD0E0C801E5
:1021D000032E02C0880F991F0A94E2F7AA2797FDE1
:1021E000A095BA2F84239523A623B7230097A10592
:1021F000B10541F0F701E20FF11D80812F5FCC0D99
:10220000DD1D8CA33F5F2B1500F3DF91CF911F9154
:102210000F91FF90EF90DF90CF90BF900895DB017A
:10222000FC01F2968EE001900D928150E1F7089545
:102230000E94A81662E070E080E090E00E944012E8
:1022400008950F931F93182F092F812F902F0E940D
:102250003E16892BD1F3812F902F0E946F161F916C
:102260000F910895FF920F931F938C01F62E6FEF3D
:102270000E94181162E070E080E090E00E9440123D
:10228000C8016F2D0E94181162E070E080E090E0BC
:102290000E944012C8010E942111F80193A382A359
:1022A00020E08F34910509F421E0822F1F910F91D6
:1022B000FF90089562E570E00E943211089560E594
:1022C00070E00E943211089569E470E00E943211BA
:1022D00008959F92AF92BF92CF92DF92EF92FF92BA
:1022E0000F931F93CF93DF938C01962EC42EB52EA0
:1022F000A22E93E0D92EC8016FEF0E941811C801D9
:10230000692D0E9418118C2D9B2D9C01E901FF2441
:10231000EE2407C0C80168810E9418118991E80E57
:10232000F394FA14B8F3C8016E2D0E94181162E0FC
:1023300070E080E090E00E944012C8010E942111EC
:10234000F80193A382A38F34910561F4D801D2964A
:102350008C2D9B2D9C01F9018EE001900D928150F6
:10236000E1F704C0DD2011F0DA94C5CF20E0F801D8
:1023700082A193A18F34910509F421E0822FDF918E
:10238000CF911F910F91FF90EF90DF90CF90BF9072
:10239000AF909F900895AC0163E570E04C5D5F4F96
:1023A0002EE00E94691108950F931F938C0166E23D
:1023B00079E00E944F10D80193961C921E9292973A
:1023C000C80184962EE0DC01822F1D928A95E9F7E0
:1023D000C801C296DC011D922A95E9F7C80140E8C0
:1023E00055E260E070E00E94B7151F910F910895CB
:1023F0001F920F920FB60F9211242F933F938F933A
:102400009F93AF93BF938091470890914808A09104
:102410004908B0914A0830914B080196A11DB11DA1
:10242000232F2D5F2D3720F02D570196A11DB11DB3
:1024300020934B088093470890934808A09349083D
:10244000B0934A088091430890914408A0914508B0
:10245000B09146080196A11DB11D80934308909349
:102460004408A0934508B0934608BF91AF919F914F
:102470008F913F912F910F900FBE0F901F90189545
:102480009B01AC017FB7F894809143089091440878
:10249000A0914508B091460866B5A89B05C06F3F5E
:1024A00019F00196A11DB11D7FBFBA2FA92F982F3A
:1024B0008827860F911DA11DB11D62E0880F991F0D
:1024C000AA1FBB1F6A95D1F7BC012DC0FFB7F894B6
:1024D0008091430890914408A0914508B091460826
:1024E000E6B5A89B05C0EF3F19F00196A11DB11DEF
:1024F000FFBFBA2FA92F982F88278E0F911DA11DDE
:10250000B11DE2E0880F991FAA1FBB1FEA95D1F702
:10251000861B970B885E9340C8F2215030404040A4
:10252000504068517C4F211531054105510571F628
:102530000895789484B5826084BD84B5816084BD3B
:1025400085B5826085BD85B5816085BDEEE6F0E02C
:10255000808181608083E1E8F0E010828081826088
:102560008083808181608083E0E8F0E08081816009
:102570008083E1E9F0E080818260808380818160F6
:102580008083E0E9F0E0808181608083E1ECF0E02D
:10259000808184608083808182608083808181608B
:1025A0008083E3ECF0E0808181608083E0ECF0E008
:1025B000808182608083E2ECF0E0808181608083B2
:1025C000EAE7F0E08081846080838081826080839C
:1025D00080818160808380818068808308958231DA
:1025E00008F08251E82FF0E0E15AFE4FE49120918B
:1025F0007B008E2F86958695869590E081709070F1
:1026000035E0880F991F3A95E1F72F7D282B20930D
:102610007B00E770809194068295880F880F807CFC
:102620008E2B80937C0080917A00806480937A0066
:1026300080917A0086FDFCCF20917800409179004E
:10264000942F80E030E0282B392BC9010895CF93D7
:10265000DF93482F50E0CA018D5D9E4FFC013491FD
:102660004B5F5E4FFA018491882369F190E0880FF7
:10267000991FFC01E552FF4FA591B491FC01E75170
:10268000FF4FC591D491662351F42FB7F8948C91E4
:10269000932F909589238C93888189230BC0623076
:1026A00061F42FB7F8948C91932F909589238C9394
:1026B0008881832B88832FBF06C09FB7F8948C91A5
:1026C000832B8C939FBFDF91CF910895883071F158
:1026D000893068F4823031F1833020F4813009F0A0
:1026E00042C01DC0833089F08430E9F512C08B30C0
:1026F00059F18C3028F48930E9F08A30A1F51EC0F8
:102700008C3031F18E3079F529C0809180008F773F
:1027100003C0809180008F7D80938000089584B5F0
:102720008F7702C084B58F7D84BD0895809190001D
:102730008F7707C0809190008F7D03C080919000BB
:10274000877F8093900008958091C0008F7703C0A9
:102750008091C0008F7D8093C00008958091C20059
:10276000877F8093C2000895FF920F931F93F62EE8
:10277000482F50E0CA018F5B9E4FFC012491CA0193
:102780008D5D9E4FFC0114914B5F5E4FFA010491E9
:102790000023C9F0222319F0822F0E946613E02F34
:1027A000F0E0EE0FFF1FE751FF4FA591B4919FB7E7
:1027B000F894FF2021F48C911095812302C08C9114
:1027C000812B8C939FBF1F910F91FF9008950F93C2
:1027D0001F93482F50E0CA018F5B9E4FFC0124914C
:1027E000CA018D5D9E4FFC0104914B5F5E4FFA0163
:1027F0001491112319F420E030E015C0222319F0C0
:10280000822F0E946613812F90E0880F991F8950B4
:102810009F4FFC01A591B4918C9120E030E0802382
:1028200011F021E030E0C9011F910F910895089542
:1028300020918C0830918D0880918E0890918F089E
:10284000281B390B2F733070C901089520918C0813
:1028500030918D0880918E0890918F082817390744
:1028600019F42FEF3FEF09C0E0918E08F0918F0827
:10287000E45BF74F8081282F30E0C9010895209153
:102880008C0830918D0880918E0890918F082817C0
:10289000390719F42FEF3FEF13C0E0918E08F09144
:1028A0008F08E45BF74F208180918E0890918F080C
:1028B00001968F73907090938F0880938E0830E00C
:1028C000C9010895109293081092920888EE93E03F
:1028D000A0E0B0E08093940890939508A0939608A8
:1028E000B093970883EF96E09093910880939008B7
:1028F00008950F931F93DF93CF930F92CDB7DEB759
:102900008C01698380919C06882369F083E0BE0175
:102910006F5F7F4F41E050E00E94DC1A18161906E5
:1029200014F49C0107C081E090E0F8019383828356
:1029300020E030E0C9010F90CF91DF911F910F91FE
:10294000089583E00E94B31A0895CF93DF9312C0D5
:1029500082E00E943E1A2FEF8F3F9207C9F0E0916C
:102960008C08F0918D08E45BF74F8083D0938D083D
:10297000C0938C08C0918C08D0918D082196CF739C
:10298000D07080918E0890918F08C817D90701F7F1
:10299000DF91CF910895FC0180818E5F808380E874
:1029A0006BE671E042E450E00E94571A0895FC0182
:1029B00081819081913A59F4813209F04CC080E0D4
:1029C00065E976E047E050E00E94571A42C0913234
:1029D00009F041C0803239F485E996E067E070E0A3
:1029E0000E949B1A36C0823209F035C082818093E2
:1029F0009C068091950690919606A0919706B091BD
:102A00009806805B9440A040B04019F580919C06E8
:102A100080FD12C087E797E7909301088093000834
:102A20002BE088E190E00FB6F894A89580936000C1
:102A30000FBE209360000DC088E10FB6F89480931C
:102A40006000109260000FBEA895109201081092CD
:102A5000000881E0089580E0089508951F920F9284
:102A60000FB60F9211242F933F934F938F939F9301
:102A7000EF93FF938091C80082FD1DC04091CE006E
:102A80002091DE083091DF082F5F3F4F2F733070A9
:102A90008091E0089091E1082817390771F0E091E2
:102AA000DE08F091DF08E256F74F40833093DF08ED
:102AB0002093DE0802C08091CE00FF91EF919F919C
:102AC0008F914F913F912F910F900FBE0F901F90BC
:102AD0001895E0913209F0913309E05CFF4F819144
:102AE000919120813181821B930B8F739070892B80
:102AF00011F00E942D1508951F920F920FB60F929C
:102B000011242F933F938F939F93EF93FF932091E3
:102B100022093091230980912409909125092817D1
:102B2000390731F48091C9008F7D8093C90014C0AA
:102B3000E0912409F0912509EE51F74F2081809111
:102B400024099091250901968F739070909325091F
:102B5000809324092093CE00FF91EF919F918F9154
:102B60003F912F910F900FBE0F901F901895AF922D
:102B7000BF92DF92EF92FF920F931F93CF93DF9359
:102B8000EC017A018B01DD24403081EE580780E0B2
:102B9000680780E0780711F0DD24D39491E0A92E36
:102BA000B12CEC89FD89DD2069F0C50108A002C0C7
:102BB000880F991F0A94E2F7808360E079E08DE343
:102BC00090E005C0108260E874E88EE190E0A80112
:102BD00097010E94E52021503040404050405695DA
:102BE00047953795279580E12030380720F0DD2084
:102BF00011F0DD24D6CFE889F9893083EA89FB8991
:102C0000208319A2EE89FF89408121E030E0C901CB
:102C10000C8C02C0880F991F0A94E2F7482B40835E
:102C2000EE89FF894081C9010D8C02C0880F991F70
:102C30000A94E2F7482B4083EE89FF894081C9015D
:102C40000E8C02C0880F991F0A94E2F7482B40832C
:102C5000EE89FF8980810F8C02C0220F331F0A94F6
:102C6000E2F7209528232083DF91CF911F910F91C8
:102C7000FF90EF90DF90BF90AF900895DC011C961D
:102C8000ED91FC911D97E05CFF4F21913191808186
:102C90009181281B390B2F733070C9010895DC0115
:102CA0001C96ED91FC911D97E05CFF4F20813181D6
:102CB000E054F040DF01AE5BBF4F8D919C911197C6
:102CC0002817390719F42FEF3FEF07C08D919C911A
:102CD000E80FF91F8081282F30E0C9010895DC0139
:102CE0001C96ED91FC911D97E05CFF4F2081318196
:102CF000E054F040DF01AE5BBF4F8D919C91119786
:102D00002817390719F42FEF3FEF10C08D919C91D0
:102D10001197E80FF91F20818D919C9111970196D1
:102D20008F73907011969C938E9330E0C901089533
:102D3000DC0191968C919197882339F05496ED910E
:102D4000FC915597808186FFF9CF91961C9208954A
:102D5000CF93DF93EC01EE85FF85E05CFF4F208190
:102D60003181E054F0402F5F3F4F2F733070DF010F
:102D7000AE5BBF4F8D919C91119728173907D1F306
:102D8000E05CFF4F80819181E054F040E80FF91F33
:102D90006083EE85FF85E05CFF4F31832083EE8901
:102DA000FF89208181E090E00F8C02C0880F991F7D
:102DB0000A94E2F7282B208381E089A3EC89FD891E
:102DC00080818064808381E090E0DF91CF910895DD
:102DD000109229091092280988EE93E0A0E0B0E053
:102DE00080932A0990932B09A0932C09B0932D0965
:102DF00085E097E090932709809326098EE998E073
:102E0000909333098093320982EE98E090933509CC
:102E1000809334098DEC90E09093370980933609C4
:102E20008CEC90E0909339098093380988EC90E01D
:102E300090933B0980933A0989EC90E090933D0987
:102E400080933C098AEC90E090933F0980933E097F
:102E50008EEC90E0909341098093400984E0809348
:102E6000420983E08093430987E08093440985E029
:102E70008093450981E0809346090895CF93DF93BD
:102E80000E94991280E599E00E94BE1A0E941208E1
:102E9000C9E6D5E10E94D8072097E1F30E946915A1
:102EA000F9CFCF92DF92EF92FF920F931F93CF93C0
:102EB000DF937C016B018A01C0E0D0E00FC0D60136
:102EC0006D916D01D701ED91FC910190F081E02DA4
:102ED000C7010995C80FD91F0150104001151105F0
:102EE00071F7CE01DF91CF911F910F91FF90EF907D
:102EF000DF90CF900895EF92FF920F931F93CF939F
:102F0000DF937C018B01C0E0D0E0F8010F5F1F4F21
:102F10006491662359F0D701ED91FC910190F08105
:102F2000E02DC7010995C80FD91FEFCFCE01DF9162
:102F3000CF911F910F91FF90EF900895DC01ED91DB
:102F4000FC910190F081E02D09950895EF92FF9298
:102F50000F931F938C01DC01ED91FC910190F081A6
:102F6000E02D6DE009957C01D801ED91FC91019077
:102F7000F081E02DC8016AE009959C012E0D3F1DEE
:102F8000C9011F910F91FF90EF900895EF92FF926A
:102F90000F931F937C010E947B178C01C7010E9435
:102FA000A6179C01200F311FC9011F910F91FF909F
:102FB000EF900895CF93DF93EC016115710519F43B
:102FC00020E030E00FC0DB010D900020E9F7119701
:102FD000A61BB70BE881F9810280F381E02DAD01DA
:102FE00009959C01C901DF91CF9108954F925F929D
:102FF0007F928F929F92AF92BF92CF92DF92EF9289
:10300000FF920F931F93DF93CF93CDB7DEB7A197B6
:103010000FB6F894DEBF0FBECDBF2C01742ECB01CE
:10302000223008F42AE019A231E2C32ED12CCC0EB2
:10303000DD1E822E9924AA24BB24672D752FA5019D
:1030400094010E94E52079018A01C801B701A50118
:1030500094010E94B320472D461B0894C108D10853
:103060004A3014F4405D01C0495CF6014083E1142C
:10307000F1040105110521F07E2C5F2DC801DDCF83
:10308000C201B6010E94DA17A1960FB6F894DEBF0E
:103090000FBECDBFCF91DF911F910F91FF90EF90A9
:1030A000DF90CF90BF90AF909F908F907F905F9078
:1030B0004F900895DC012115310541F4ED91FC910B
:1030C0000190F081E02D642F099508950E94F61774
:1030D0000895EF92FF920F931F939A017B0100E0F6
:1030E00010E0B801A7010E945A181F910F91FF909C
:1030F000EF900895EF92FF920F931F939A01E62E9F
:10310000FF2400E010E0B801A7010E945A181F91A7
:103110000F91FF90EF900895CF92DF92EF92FF9280
:103120000F931F936C01E62E9A01FF2400E010E03C
:10313000B801A7010E945A188C01C6010E94A61767
:10314000080F191FC8011F910F91FF90EF90DF909A
:10315000CF900895CF92DF92EF92FF920F931F933B
:10316000CF93DF93EC016A017B012115310541F416
:10317000E881F9810190F081E02D642F09951FC04D
:103180002A303105D1F477FF17C0E881F981019029
:10319000F081E02D6DE209958C0144275527BA0195
:1031A0004C195D096E097F09CE012AE00E94F617CD
:1031B0009801280F391F04C02AE00E94F6179C01CD
:1031C000C901DF91CF911F910F91FF90EF90DF9098
:1031D000CF900895EF92FF920F931F937B019A0176
:1031E0000027F7FC0095102FB801A7010E94AA182C
:1031F0001F910F91FF90EF9008950E94DA170895A4
:103200007F928F929F92AF92BF92CF92DF92EF9276
:10321000FF920F931F93CF93DF934C017A018B01A1
:10322000722ECB01BA01A80197010E94AF2088231A
:1032300021F0C40168EC73E021C0C0E0D0E0570188
:103240006801E894D7F8C601B5012FEF3FEF4FE7CB
:103250005FE70E94AF20882351F4C601B5012FEF2C
:103260003FEF4FE75FE70E94F91E181614F0C1E028
:10327000D0E0219739F0C4016CEC73E00E94DA17BA
:10328000EC0193C0C801B7012FEF3FEF4FE75FE4B8
:103290000E944820181654F0C801B7012FEF3FEFE5
:1032A0004FE75FEC0E94F91E882324F4C40160ED0F
:1032B00073E0E4CFC801B70120E030E040E050E027
:1032C0000E94F91E87FD03C0C0E0D0E00EC0D4010B
:1032D000ED91FC910190F081E02DC4016DE2099522
:1032E000EC0117FB109517F9109520E030E040E055
:1032F0005FE3DD240BC0CA01B90120E030E040E209
:1033000051E40E94FD1E9B01AC01D394D71498F3A5
:10331000C801B7010E94951E5B016C010E946A1FE3
:103320007B018C01C401B801A7012AE030E00E94B2
:103330005A18C80FD91F772039F0C40164ED73E023
:103340000E94DA17C80FD91FC801B7010E94961F43
:103350009B01AC01C601B5010E94941E24C020E06F
:1033600030E040E251E40E944C207B018C010E943D
:10337000651F5B016C01CC24B7FCC094DC2CC4013C
:10338000B601A5012AE030E00E94AA18C80FD91F93
:10339000C601B5010E94981F9B01AC01C801B7018D
:1033A0000E94941E7A947720D1F6CE01DF91CF91BE
:1033B0001F910F91FF90EF90DF90CF90BF90AF9053
:1033C0009F908F907F900895EF92FF920F931F939D
:1033D0007C010E9400198C01C7010E94A617080FEA
:1033E000191FC8011F910F91FF90EF900895EF9260
:1033F000FF920F931F937C010E94DA178C01C70183
:103400000E94A617080F191FC8011F910F91FF9066
:10341000EF900895282F80914A098823C1F057FF23
:103420001AC015C02898909349098091F1008193A2
:10343000E217F307B9F74115510539F08091F20011
:10344000882319F48BE68093E800AFBF02C04FEFEA
:103450005FEFCA010895AFB7F89427702093E90091
:103460008091F200282F30E0241735070CF4A901D1
:10347000FB019B01240F311D94E6DACFDF93CF933C
:103480000F92CDB7DEB7BE016F5F7F4F41E050E0D6
:103490000E940A1A019719F02FEF3FEF03C08981AC
:1034A000282F30E0C9010F90CF91DF910895FF924E
:1034B0000F931F93F82E142F052F40914D09509113
:1034C0004E09212F302FC901DC01FB016EEF29C00D
:1034D000F7FE02C0949101C0908120914B09309178
:1034E0004C0924173507ACF48091E8008570E1F3AE
:1034F0008091E80082FF03C02FEF3FEF17C0909349
:10350000F100C90101968F739070892B11F46093BB
:10351000E8002F5F3F4F30934C0920934B091197E0
:1035200031961097A9F6812F902F9C01C9011F9108
:103530000F91FF9008959C018091E80082FFFCCFDD
:10354000F901260F311D03C08091F1008193E2172C
:10355000F307D1F7289884E6809349098BEF80938D
:10356000E800CB0108958093E9008091F200882360
:1035700019F08AE38093E8000895089510924A09AB
:1035800081E08093D70080EA8093D80082E189BDF2
:1035900009B400FEFDCF61E070E080E090E00E94A1
:1035A000401280E98093D8008CE08093E200109272
:1035B000E000559A209A08955F926F927F928F92C1
:1035C0009F92AF92BF92CF92DF92EF92FF920F93B2
:1035D0001F93CF93DF93E82E842E752E80914A0996
:1035E000882371F18B01242F352FC901EC017AEF6B
:1035F000F72E67E0962E9E2050E4552E8E2D90E0FB
:1036000040E2A42EB12CA822B9223AE3632E20E492
:10361000C22ED12CC822D92258C09FB7F8949092BC
:10362000E9008091E80085FD02C020E004C080919F
:10363000F200252D281B9FBF222361F4FA9419F470
:103640002FEF3FEF4DC061E070E080E090E00E941E
:1036500040123BC0822F90E0C817D9070CF42C2FE2
:10366000C21BD1094FB7F8949092E900A114B1049C
:1036700021F406C01092F10021502223D9F719C07D
:10368000E7FC03C0F801922F10C0C801322F06C01A
:10369000FC010196E491E093F10031503323C1F72E
:1036A00006C081918093F10091509923D1F7020FC8
:1036B000111D8091E80085FF05C0209729F4C114F1
:1036C000D10411F06092E8004FBF209709F0A5CF18
:1036D0005D9884E680934809282D372DC9019C0107
:1036E000C901DF91CF911F910F91FF90EF90DF9073
:1036F000CF90BF90AF909F908F907F906F905F9092
:1037000008951F920F920FB60F9211242F933F939B
:103710004F935F936F937F938F939F93AF93BF93D9
:10372000EF93FF938091E1001092E100982F83FFC7
:103730000FC01092E90081E08093EB001092EC0042
:1037400082E38093ED0010924A0988E08093F000B4
:1037500092FF34C083E08093E9008091F2008823D7
:1037600019F08AE38093E8008FB7F89492E0909381
:10377000E9009091F2008FBF992321F080E998E051
:103780000E94A51480914809882351F0809148092E
:1037900081508093480980914809882309F45D9AF3
:1037A00080914909882351F0809149098150809383
:1037B000490980914909882309F4289AFF91EF91DA
:1037C000BF91AF919F918F917F916F915F914F9139
:1037D0003F912F910F900FBE0F901F9018950F9350
:1037E0001F93DF93CF930F92CDB7DEB719828E016F
:1037F0000F5F1F4FC8010E94CB14C8010E94881E92
:10380000898190E00F90CF91DF911F910F910895E2
:103810001F920F920FB60F921124EF92FF921F93F7
:103820002F933F934F935F936F937F938F939F93C8
:10383000AF93BF93EF93FF93DF93CF93CDB7DEB7F3
:103840006197DEBFCDBF1092E9008091E80083FF51
:103850000FC1FE0131969E01275F3F4F03C080914B
:10386000F1008193E217F307D1F7289884E680935B
:10387000490982EF8093E800998197FF05C0809104
:10388000E80080FFFCCF03C08EEF8093E800292F73
:1038900030E0C90180769070892B09F0C2C08A811E
:1038A000882329F41092F1001092F100D6C08130E3
:1038B00009F4D3C0833009F4D0C0853049F4809135
:1038C000E80080FFFCCF8B8180688093E300C5C057
:1038D000863009F07CC01C81EF80F8841230C1F57D
:1038E0001092E90010924C0910924B0910924E0967
:1038F00010924D090E94EF1B99E0FE013996DF01FD
:10390000292F1D922A95E9F799871A8791E09E87BA
:1039100090E8988B9AEF998B20914B0930914C0944
:10392000275F3F4F3C872B878D871092E9001092CD
:103930004C0910924B09F0924E09E0924D0980E03B
:10394000BF0149E050E00E94571A0E94EF1B85C05A
:103950001092E90010924C0910924B09F0924E0916
:10396000E0924D09123241F482E290E00E94801E02
:10397000892B09F476C071C0113079F488E0E8161B
:10398000F10419F481E080934F0980914F09882355
:1039900009F06BC0EBEEF1E013C0133009F061C029
:1039A0008B81882319F4EDEAF1E00AC0823019F422
:1039B000E1EBF1E005C0813009F053C0E3EDF1E047
:1039C000449180E8BF0150E00E94571A46C08730FA
:1039D00009F447C0883021F481E08093F1003DC0B4
:1039E0008930D9F523703070232BD9F5E0E1F2E06E
:1039F00091E031E026E39093E9003093EB0084916D
:103A00008093EC002093ED009F5F3196953099F7FD
:103A10008EE78093EA001092EA008B8180934A0936
:103A20001CC08F8198851092E90010924C09109269
:103A30004B0990934E0980934D098D81882329F479
:103A4000CE0101960E94D71406C0823051F4CE01F7
:103A500001960E94511D882321F08EEF8093E8008B
:103A600007C081E28093EB0003C0EDEFF1E0A8CF47
:103A70006196DEBFCDBFCF91DF91FF91EF91BF91F6
:103A8000AF919F918F917F916F915F914F913F91F6
:103A90002F911F91FF90EF900F900FBE0F901F90EE
:103AA0001895FC0191818081813A31F4913089F03F
:103AB00080E0933089F40DC0813269F49B3021F4A9
:103AC000828180939D0605C09A3029F4828180937B
:103AD0009E0681E0089580E00895EF92FF920F9393
:103AE0001F938C01E62EDC01ED91FC910480F581A1
:103AF000E02D0995F82ED801ED91FC910680F78113
:103B0000E02DC8016E2D09958F2D90E01F910F912A
:103B1000FF90EF900895109251091092550910925C
:103B2000540985E197E090935309809352090895D1
:103B3000EF92FF920F931F93DF93CF930F92CDB726
:103B4000DEB789838B017A0184E0BE016F5F7F4F0E
:103B500041E050E00E94DC1A84E4B801A7010E9411
:103B6000DC1A0F90CF91DF911F910F91FF90EF9092
:103B7000089582E048E050E00E94981D0895FC01FD
:103B80001682178210861186128613861482349646
:103B9000BF010E94B91D0895DC01683810F0685813
:103BA00029C0E62FF0E067FF13C0E058F04081E045
:103BB00090E002C0880F991FEA95E2F7809514966D
:103BC0002C911497282314962C93149760E012C01C
:103BD000EE56FD4F6491662319F420E030E01DC0DD
:103BE00067FF08C014968C9114978D7F14968C9360
:103BF00014976F77FD0190E0662321F08681861788
:103C000009F416829F5F31969630B1F7CD01149674
:103C1000BD010E94B91D21E030E0C9010895CF9394
:103C2000DF93DC01683810F0685825C0E62FF0E01B
:103C300067FF12C0E058F04081E090E002C0880FBA
:103C4000991FEA95E2F714962C911497282B149655
:103C50002C93149760E00FC0EE56FD4F64916623DD
:103C6000D9F167FF08C014968C911497826014965E
:103C70008C9314976F7716968C9116978617A9F1E7
:103C800017968C911797861781F118968C91189733
:103C9000861759F119968C911997861731F11A9652
:103CA0008C911A97861709F11B968C911B97861792
:103CB000E1F0ED01E0E0F0E09E2F8E81882321F419
:103CC000EA0FFB1F668306C09F5F31962196E630A0
:103CD000F10591F7963049F481E090E013969C93BA
:103CE0008E93129720E030E007C0CD011496BD01FD
:103CF0000E94B91D21E030E0C901DF91CF91089504
:103D000080E864E172E045E650E00E94571A0895A9
:103D1000FC0180818F5F808380E869E772E049E180
:103D200050E00E94571A08955058BB27AA270ED07A
:103D300075C166D130F06BD120F031F49F3F11F4A2
:103D40001EF45BC10EF4E095E7FB51C1E92F77D17A
:103D500080F3BA17620773078407950718F071F4A8
:103D60009EF58FC10EF4E0950B2EBA2FA02D0B01FE
:103D7000B90190010C01CA01A0011124FF27591BB0
:103D800099F0593F50F4503E68F11A16F040A22FB6
:103D9000232F342F4427585FF3CF46953795279527
:103DA000A795F0405395C9F77EF41F16BA0B620B26
:103DB000730B840BBAF09150A1F0FF0FBB1F661F6D
:103DC000771F881FC2F70EC0BA0F621F731F841FB0
:103DD00048F4879577956795B795F7959E3F08F0D6
:103DE000B3CF9395880F08F09927EE0F9795879595
:103DF0000895D9D008F481E008950CD00FC107D1FF
:103E000040F0FED030F021F45F3F19F0F0C05111C6
:103E100039C1F3C014D198F39923C9F35523B1F3F1
:103E2000951B550BBB27AA2762177307840738F029
:103E30009F5F5F4F220F331F441FAA1FA9F333D088
:103E40000E2E3AF0E0E830D091505040E695001C3C
:103E5000CAF729D0FE2F27D0660F771F881FBB1FF8
:103E6000261737074807AB07B0E809F0BB0B802DD2
:103E7000BF01FF2793585F4F2AF09E3F510568F01E
:103E8000B6C000C15F3FECF3983EDCF386957795B2
:103E90006795B795F7959F5FC9F7880F911D969520
:103EA000879597F90895E1E0660F771F881FBB1F7C
:103EB000621773078407BA0720F0621B730B840B29
:103EC000BA0BEE1F88F7E095089504D06894B111FD
:103ED000D9C00895BCD088F09F5790F0B92F99278A
:103EE000B751A0F0D1F0660F771F881F991F1AF005
:103EF000BA95C9F712C0B13081F0C3D0B1E00895CE
:103F0000C0C0672F782F8827B85F39F0B93FCCF34E
:103F1000869577956795B395D9F73EF490958095FA
:103F2000709561957F4F8F4F9F4F0895E89409C01A
:103F300097FB3EF490958095709561957F4F8F4FDC
:103F40009F4F9923A9F0F92F96E9BB279395F695F2
:103F5000879577956795B795F111F8CFFAF4BB0F70
:103F600011F460FF1BC06F5F7F4F8F4F9F4F16C0D4
:103F7000882311F096E911C0772321F09EE8872F5E
:103F8000762F05C0662371F096E8862F70E060E01A
:103F90002AF09A95660F771F881FDAF7880F969593
:103FA000879597F90895990F0008550FAA0BE0E837
:103FB000FEEF16161706E807F907C0F012161306EB
:103FC000E407F50798F0621B730B840B950B39F42B
:103FD0000A2661F0232B242B252B21F408950A2691
:103FE00009F4A140A6958FEF811D811D089597F9D1
:103FF0009F6780E870E060E008959FEF80EC08958F
:1040000000240A94161617061806090608950024B7
:104010000A9412161306140605060895092E039431
:10402000000C11F4882352F0BB0F40F4BF2B11F4A5
:1040300060FF04C06F5F7F4F8F4F9F4F089557FD04
:104040009058440F551F59F05F3F71F04795880F06
:1040500097FB991F61F09F3F79F08795089512169D
:1040600013061406551FF2CF4695F1DF08C0161649
:1040700017061806991FF1CF8695710561050894FA
:104080000895E894BB2766277727CB0197F9089511
:104090008ADF08F48FEF08950BD0C0CFB1DF28F08E
:1040A000B6DF18F0952309F0A2CFA7CF1124EACFED
:1040B000C6DFA0F3959FD1F3950F50E0551F629F87
:1040C000F001729FBB27F00DB11D639FAA27F00D71
:1040D000B11DAA1F649F6627B00DA11D661F829F98
:1040E0002227B00DA11D621F739FB00DA11D621F7D
:1040F000839FA00D611D221F749F3327A00D611D9A
:10410000231F849F600D211D822F762F6A2F11247B
:104110009F5750408AF0E1F088234AF0EE0FFF1FCE
:10412000BB1F661F771F881F91505040A9F79E3F05
:10413000510570F05CCFA6CF5F3FECF3983EDCF307
:10414000869577956795B795F795E7959F5FC1F742
:10415000FE2B880F911D9695879597F9089523DF7B
:10416000880B990B0895629FD001739FF001829F85
:10417000E00DF11D649FE00DF11D929FF00D839FF6
:10418000F00D749FF00D659FF00D9927729FB00D93
:10419000E11DF91F639FB00DE11DF91FBD01CF01A6
:1041A0001124089597FB092E07260AD077FD04D025
:1041B0002ED006D000201AF4709561957F4F089597
:1041C000F6F7909581959F4F0895A1E21A2EAA1BAC
:1041D000BB1BFD010DC0AA1FBB1FEE1FFF1FA217B7
:1041E000B307E407F50720F0A21BB30BE40BF50BB4
:1041F000661F771F881F991F1A9469F7609570953D
:10420000809590959B01AC01BD01CF010895AA1B3B
:10421000BB1B51E107C0AA1FBB1FA617B70710F0B1
:10422000A61BB70B881F991F5A95A9F780959095E3
:10423000BC01CD010895EE0FFF1F0590F491E02D14
:104240000994803209F0911104C080528F55E0F733
:1042500008959927882708952F923F924F925F9251
:104260006F927F928F929F92AF92BF92CF92DF9286
:10427000EF92FF920F931F93CF93DF93CDB7DEB7EB
:10428000CA1BDB0B0FB6F894DEBF0FBECDBF09947F
:104290002A88398848885F846E847D848C849B84D6
:1042A000AA84B984C884DF80EE80FD800C811B81E4
:1042B000AA81B981CE0FD11D0FB6F894DEBF0FBE13
:0A42C000CDBFED010895F894FFCF83
:1042CA00436F6D6D616E64206E6F7420666F756EDC
:1042DA0064202100436C656172202100537461726D
:1042EA00742021004765742063757272656E7420AC
:1042FA00736572766F20706F736974696F6E2021AF
:10430A0000093A2000417267756D656E7420657206
:10431A00726F7220210053657175656E6365206E38
:10432A006F7420666F756E64202100417661696C36
:10433A0061626C652073657175656E6365203A000C
:10434A002D200052756E2073657175656E63652048
:10435A003A20002C206E616D65203A20002C2063E3
:10436A006F756E74203A20002C2074696D656F7524
:10437A0074203A20002C206261636B77617264209A
:10438A003A2000466F7277617264202100426163AD
:10439A006B776172642021005365742073657276AD
:1043AA006F203A200020280029002C20706F7369A2
:1043BA0074696F6E203A2000526573756D650050FE
:1043CA006175736500446562756720656E61626C2C
:1043DA0065642021004465627567206469736162BF
:1043EA006C656420210057616974696E6720666F85
:1043FA007220627574746F6E2C2073657175656EA8
:10440A0063652000202E2E2E005B6F6B5D00496EC7
:10441A00666F20212100566F6C74616765203A200F
:10442A000043757272656E74203A20002500427549
:10443A0074746F6E20302000707265737365642027
:10444A00210072656C656173656420210042757490
:10445A00746F6E2031200046656574003A003100A1
:10446A0030002C2000496E697400696E6974006915
:10447A006E666F00646562756700726573756D6557
:10448A0000706175736500736574007365710070FF
:10449A0075736800737461727400636C656172008D
:1044AA00706F730057616974696E6720666F722056
:1044BA0073657269616C2C2073657175656E6365CD
:1044CA0020005374616E646279004D6964646C659E
:1044DA00004C656720646F776E004C6567207570C5
:1044EA000050757368207570004D6964646C6520AE
:1044FA0070757368207570004C61746572616C2008
:10450A00707573682075700057616C6B005269672B
:10451A006874207475726E004C65667420747572C6
:10452A006E004C696E757866720043757272656EBC
:10453A0074206C696D6974207265616368656420B2
:10454A003A20002520210043757272656E7420702E
:10455A00726F74656374696F6E206F6E202100201C
:10456A00004D696E202F204D6178206572726F723E
:10457A00203A200020210053657175656E6365201D
:10458A00636F756E74203A006E616E00696E660024
:10459A006F7666002E002000620900000000F5F523
:1045AA00F5F5F5F5F1F1F1F1F1F100000000020382
:1045BA000100DC030000F5F5F5F5F5F5F5F5F5F57F
:1045CA00F5F5000000000A030100F4039600E6E690
:1045DA00E6E6E6E6F0F0F0F0F0F000000000110385
:1045EA0001000C049600E6E6E6E6E6E6F1F1F1F1F2
:1045FA00F1F1000000001A03010024049600EBEB1D
:10460A00F5F5ECECF1F1F1F1F1F1000000009600A2
:10461A00E6E6E6E6E6E6F0F0F0F0F0F0000000008C
:10462A00210302003C04E803E6E6E6E6E6E6F1F1E9
:10463A00F1F1F1F100000000E803E6E6E6E6E6E65D
:10464A00F5F5F5F5F5F500000000E803E6E6E6E61F
:10465A00E6E6F0F0F0F0F0F00000000029030300B5
:10466A0066045802E6E6E6E6E6E6F1F0F1F0F1F075
:10467A00000000005802E6E6E6E6E6E6F0F1F0F1B0
:10468A00F0F10000000038030200A2049600E6E6FA
:10469A00E6E6E6E6F1E6E6F1F1E60000000096005D
:1046AA00EBECECEBEBECE6E6E6E6E6E60000000017
:1046BA009600E6E6E6E6E6E6F0E6E6F0F0E6000074
:1046CA0000009600E6E6E6E6E6E6E6F1F1E6E6F161
:1046DA00000000009600ECEBEBECECEBE6E6E6E61D
:1046EA00E6E6000000009600E6E6E6E6E6E6E6F024
:1046FA00F0E6E6F00000000048030600CC0496004D
:10470A00E6E6E6E6E6E6F1F0F0F0F0F10000000099
:10471A009600EBE6E6E6E6ECE6E6E6E6E6E6000026
:10472A0000009600E6E6E6E6E6E6F0F0F0F0F0F0E5
:10473A00000000009600E6E6E6E6E6E6E6F1E6E6D2
:10474A00F1E6000000009600E6ECE6E6EBE6E6E6B7
:10475A00E6E6E6E6000000009600E6E6E6E6E6E6BD
:10476A00E6F0F1F1F0E6000000009600ECEBE6E678
:10477A00ECEBE6E6E6E6E6E6000000004D0307009D
:10478A003E059600E6E6E6E6E6E6F1F0F0F0F0F140
:10479A00000000009600ECE6E6E6E6EBE6E6E6E672
:1047AA00E6E6000000009600E6E6E6E6E6E6F0F059
:1047BA00F0F0F0F0000000009600E6E6E6E6E6E635
:1047CA00E6F1E6E6F1E6000000009600E6EBE6E632
:1047DA00ECE6E6E6E6E6E6E6000000009600E6E637
:1047EA00E6E6E6E6E6F0F1F1F0E600000000960003
:1047FA00EBECE6E6EBECE6E6E6E6E6E600000000D1
:10480A0058030700C2059600EBECECEBF5F5F0F067
:10481A00F0F0F1F0000000009600F5F5F5F5EBEC8C
:10482A00F0F1F1F0F0F0000000009600ECEBEBEC98
:10483A00F5F5F0F0F0F0F0F1000000009600F5F563
:10484A00F5F5ECEBF1F0F0F1F0F000000000620396
:10485A00040046060100E1000000000000010155C5
:10486A00AAAA5555AAAA5555AAAA555AD2D25A5AE7
:10487A00D2D25AD25A5AD2010000000200000004D1
:10488A0000000008000000100000002000000040A6
:10489A00000000800000000001000000020000008B
:1048AA0004000000080000001000000020000000C2
:1048BA000000007914511718143F142614A114A5E6
:1048CA001400000000A81651173E166F164F1698CE
:1048DA0016000000006D1D51170F1ECC1DBF1D00D4
:00000001FF
